:020000040800F2
:10000000A00500200D0200086B1B0008491900081C
:10001000691B000885050008E521000800000000B4
:10002000000000000000000000000000051D0008A6
:1000300087050008000000008F1B0008071D00084E
:1000400027020008270200082702000827020008EC
:1000500027020008270200082702000827020008DC
:1000600027020008270200082702000827020008CC
:1000700027020008270200082702000827020008BC
:1000800027020008270200082702000827020008AC
:10009000270200082702000827020008270200089C
:1000A000270200082702000827020008270200088C
:1000B000270200082702000827020008270200087C
:1000C000270200082702000827020008270200086C
:1000D000270200082702000827020008270200085C
:1000E000270200082702000827020008270200084C
:1000F000270200082702000827020008270200083C
:10010000270200082702000827020008270200082B
:10011000270200082702000827020008270200081B
:10012000270200082702000827020008270200080B
:1001300027020008270200082702000827020008FB
:1001400027020008270200082702000827020008EB
:1001500027020008270200082702000827020008DB
:1001600027020008270200082702000827020008CB
:1001700027020008270200082702000800000000EC
:1001800027020008270200082702000827020008AB
:10019000270200082702000827020008270200089B
:1001A000270200082702000827020008270200088B
:1001B000270200082702000827020008270200087B
:1001C000270200082702000800000000270200089C
:1001D000270200082702000827020008270200085B
:1001E000270200082702000827020008270200084B
:1001F0002702000827020008DFF80CD000F0F2F810
:1002000000480047B1220008A005002006488047AA
:1002100006480047FEE7FEE7FEE7FEE7FEE7FEE7EB
:10022000FEE7FEE7FEE7FEE7CD1D0008F901000846
:100230002DE9F05F0546002092469B46884606461B
:10024000814640241BE0284641464746224600F0AE
:100250003CF853465A46C01A914110D311461846ED
:10026000224600F023F82D1A67EB01084F4622467C
:100270000120002100F01AF817EB00094E41201E62
:10028000A4F10104DFDC484631462A464346BDE876
:10029000F09F70B5064601F0A7FF046805460A22E4
:1002A0000021304600F021F82C6070BD202A04DBCC
:1002B000203A00FA02F1002070479140C2F1200379
:1002C00020FA03F3194390407047202A04DB203AB8
:1002D00021FA02F00021704721FA02F3D040C2F166
:1002E000200291400843194670472DE9F047914696
:1002F0000F4680460446002614F8015B2DB100F03D
:1003000083F80068405DC007F6D12B2D02D02D2D5B
:1003100018D0641E4A463946204600F079F827B1C5
:100320003968A14201D1C7F8008071054FF002047D
:100330000BD54042002803DD01F056FF0460A00702
:10034000BDE8F08746F48066E4E70028F8DA01F0BB
:100350004BFF04606FF00040F2E700002DE9F04130
:10036000054621F000400C46284309D0C4F30A504A
:1003700040F23341884205DD28462146BDE8F08140
:100380002846FBE740F2FE31884210DC0CDB4FEAE6
:10039000043040EA155050EA053105D0104804F009
:1003A000004101430020E9E700200146E6E7A0F212
:1003B00033404642C6F1400228462146FFF776FF09
:1003C00007468846284621463246FFF77EFF4346C9
:1003D0003A4600F06CF83246BDE8F041FFF766BFE0
:1003E0000000F03F064C074D06E0E06840F00103D6
:1003F00094E8070098471034AC42F6D3FFF700FFAB
:1004000094330008B4330008004870479033000864
:100410002DE9F05F82460078002715468B460AF1E9
:100420000104B946302801D09DB113E014F8010B46
:100430000127782803D0582801D045B10AE00DB132
:10044000102D07D10027102514F8010B02E0082514
:1004500000E00A250026B0460EE005FB080005FB7B
:1004600006F1012701EB10461FFA80F8B6F5803F30
:1004700000D3B94614F8010B294600F075F800289E
:10048000EBDABBF1000F05D00FB1641E00E054465B
:10049000CBF80040B9F1000F06D001F0A5FE022113
:1004A0000160C81EBDE8F09F48EA0640FAE710B5B3
:1004B000141E73F1000408DA401C41F10001921887
:1004C0005B411A4301D120F0010010BD2DE9F04D30
:1004D00092469B4611B1B1FA81F202E0B0FA80F285
:1004E00020329046FFF7E2FE04460F4640EA0A003B
:1004F00041EA0B0153465A46084313D0114653EACA
:10050000010019D0C8F140025046FFF7DEFE054653
:100510000E46504659464246FFF7C8FE084305D0EE
:10052000012004E020463946BDE8F08D0020054357
:1005300046EAE0762C4337430A986305E40AA0EBC9
:1005400008000022FD0A44EA47540A3002D5002080
:100550000146E9E7010510196941DDE9084500197F
:100560006941BDE8F04DA2E73A2800D2303820F0CA
:100570002002412A01D3A2F13700884201D34FF073
:10058000FF307047FEE7704770B54379012B1AD0F2
:100590000124447102230371056840F6FE76D1E917
:1005A00000310B4329689640B1439340C0260B436A
:1005B0002B60016896400A68B2430A600023047108
:1005C0004371184670BD022070BD70B5040003D0A1
:1005D0002079002510B105E0012070BD204665712D
:1005E00000F008F80221217101202561207100200E
:1005F00070BD000000B5006887B00B49884211D17A
:100600000A48016841F0005101600068032100229E
:1006100000F00050059010208DE80700044869465E
:1006200000F060F807B000BD0074004040380240A0
:100630000000024008B500290168009100681044DC
:1006400004D0143000900360002008BD0830F9E7A2
:1006500030B54279012A17D0012242710224047177
:10066000002902FA01F301680C6844EA03040C60F3
:1006700001680B680AD00D6803F48024B4F5802F5C
:1006800005F460130FD015E0022030BD0C6803F0B4
:100690000403042B04F038040CD1382C0AD14B6825
:1006A00043F0010305E0B3F5601F03D14B6843F04D
:1006B00002034B60002102714171084630BD000009
:1006C00070B5044600F004F90546601C02D00448E9
:1006D0000078044400F0FCF8401BA042FAD370BD3F
:1006E000340000202DE9F84FDFF89CE100224FF0A4
:1006F00001084FF0030B4FF00F0A00BF0B6808FA18
:1007000002F42340A34271D14D68022D01D0122D75
:100710000FD1D5080E69570700EB8505A9462D6A4C
:10072000FF0E0AFA07FCBE4025EA0C052E43C9F865
:1007300020600F79550006680BFA05FC07F00307E7
:1007400026EA0C06AF40374307604E68012E05D0FD
:10075000022E03D0112E01D0122E0ED18668CF6842
:1007600026EA0C06AF403743876046680F79A643F8
:10077000C7F30017974037434760C4688E6824EA80
:100780000C04AE402643C6604C68E40075D53F4C6F
:10079000256845F480452560246822F00306950706
:1007A00004F4804400943A4C2D0F2644D6F80848AF
:1007B000DFF8E0C00AFA05F7604524EA070401D132
:1007C00000272EE0344FB84201D1012729E0334FF2
:1007D000B84201D1022724E0314FB84201D10327AA
:1007E0001FE0304FB84202D104271AE045E02E4FF7
:1007F000B84201D1052714E02C4FB84201D1062799
:100800000FE02B4FB84201D107270AE0294FB84229
:1008100001D1082705E0284FB84201D1092700E09F
:100820000A27AF4027437546C6F808784E68DEF8B9
:100830000040F60324EA030400D51C43124E2C604A
:10084000361D4D683468AD0324EA030400D51C430B
:100850000D4F346008374D683C68ED0224EA03040C
:1008600000D51C43084D3C600C354E682C68B60220
:1008700024EA030400D51C432C60521C102AFFF408
:100880003DAFBDE8F88F0000003C01404438024015
:100890000030014000000240000402400008024015
:1008A000000C0240001002400014024000180240F8
:1008B000001C0240002002400024024042694A40DD
:1008C000426170470AB1816170470904FBE700008B
:1008D00001488068704700003400002002488168A9
:1008E000027811448160704734000020032010B565
:1008F00000F08AF8002000F005F800F023F800204E
:1009000010BD000070B50D4D04464FF47A700C4ACE
:1009100029781268B0FBF1F0B2FBF0F000F032FF82
:1009200048B9102C07D200222146501E00F04CF886
:1009300000206C6070BD012070BD000034000020FC
:10094000400000201F4808B5016841F08051016057
:10095000006800F0805000901A48001D016841F4C2
:1009600080410160006800F480400090032000F0A6
:100970004BF800226FF00B00114600F025F8002222
:100980006FF00A00114600F01FF800226FF0090016
:10099000114600F019F80022501F114600F014F81B
:1009A0000022101F114600F00FF80022901E114681
:1009B00000F00AF80022BDE80840501E114600F081
:1009C00003B80000403802400E4BF0B41B680D46DF
:1009D000C3F30223C3F10706042E00D90426191D10
:1009E000072901D2002300E0DB1E012404FA06F1EE
:1009F0009C40491E2940641E994014402143F0BC8C
:100A000001F0B4B80CED00E0064900F0070210B5A3
:100A10004FF6FF040868044B204040EA02201843C8
:100A2000086010BD0CED00E00000FA051848F8B5AC
:100A3000016841F0805101600068164C00F0805060
:100A40000090206840F480302060FFF741FF4FF4B1
:100A50007A76054605E000BFFFF73AFF401BB0423B
:100A60000FD86068C003F7D5206840F400302060DC
:100A7000FFF72EFF054606E0FFF72AFF401BB042B6
:100A800001D90320F8BD60688003F5D50020F8BDCA
:100A900040380240007000402DE9F84F04460078CD
:100AA000DFF824944FF000063746C0070ED0D9F87F
:100AB000001021F40001C9F80010D9F80010626B91
:100AC0001143C9F80010606B00B90126FE4D206883
:100AD000843500030ED5E16B286820F440100843EC
:100AE0002860E06BB0F5801F01D010B102E0012654
:100AF00000E0012720684FF4800BC0020CD5216C68
:100B0000286820F4400008432860206C584501D133
:100B1000012601E000B901272068C10100D50126A6
:100B2000800666D5E8483830016841F080510160A0
:100B30000068DFF898A300F080500090DAF8001009
:100B400041F48071CAF80010FFF7C2FE804605E04C
:100B5000FFF7BEFEA0EB080064287DD8DAF800009D
:100B6000C005F5D5DFF8608308F16808D8F8000003
:100B700010F440702AD0218E01F44071814225D0BA
:100B8000D8F80010D8F8002021F4407142F48032E7
:100B9000C8F80020D8F8002022F48032C8F80020DD
:100BA000C8F80010D8F80000C0070FD0FFF790FE7B
:100BB000824607E0FFF78CFEA0EB0A0141F2883085
:100BC0008142CAD8D8F800008007F3D5206BC0F363
:100BD000012103297ED0D9F8001021F4F811C9F8B9
:100BE0000010228ED8F80010C2F30B021143C8F88F
:100BF00000102078C00607D5286820F08070286093
:100C00002868A16B084328602188AF4888304904D0
:100C100005D5626E016821F44031114301602188DD
:100C2000090405D5A26E016821F440211143016039
:100C30002168C90305D5E26E016821F44011114312
:100C400001602168890305D5226F016821F4400104
:100C500011430160217800E034E1490605D5626C5A
:100C6000016821F00301114301602178090605D5CF
:100C7000A26C016821F00C01114301602188C905B3
:100C800005D5E26C016821F0300111430160218833
:100C9000890505D5226D016821F0C001114301606D
:100CA0002188490505D5626D016821F44071114321
:100CB00001602188090505D5A26D016821F4406114
:100CC000114301602188C90407D5E26D016821F450
:100CD000405100E05FE0114301602188890405D59F
:100CE000226E016821F440411143016021684902EC
:100CF00005D5A26F016821F0806111430160216870
:100D00004FF0006A890209D5E26F016821F00061A5
:100D100011430160E16F514500D1012721680A07A5
:100D200000D50127490305D5626F016821F04071A4
:100D3000114301602168090206D5D4F880200168BA
:100D400021F08051114301602168490106D5D4F892
:100D50008420016821F000511143016020680001E6
:100D600006D5D4F88810286820F000700843286061
:100D70002068C00006D5D4F88C10286820F0806068
:100D800008432860DFF84891012E0ED02068B0F1AA
:100D9000007F0AD08FE04F4AD9F80030104023F48A
:100DA000F8120243C9F800201BE7D9F800004E46AC
:100DB00020F08060C9F80000FFF78AFD804605E05A
:100DC000FFF786FDA0EB080064287BD8306800019F
:100DD000F6D421783C487C30C90712D0616B81B9C8
:100DE000237A62680168D0F800C09201C1F3014122
:100DF00042EA0142CCF3036142EA016141EA037134
:100E0000016021680A0303D5E26BB2F5801F04D0AC
:100E1000C9021AD5216C594517D16368016894F845
:100E20000CC002689B01C1F3014143EA0141C2F3D6
:100E3000027241EA0C6141EA027101602968626A4A
:100E400021F01F01521E114329602168C90110D5EC
:100E5000238A62680168D0F800C09201C1F303617F
:100E600042EA034242EA0162CCF3027142EA0171B2
:100E70000160216889010CD56168228A237B94F87E
:100E800008C0890141EA024141EA036141EA0C716B
:100E900001603168B04641F080613160FFF718FDB4
:100EA000064604E0FFF714FD801B64280AD8D8F832
:100EB00000000001F6D5E7B3D9F800004E4620F057
:100EC000805009E07BE000000838024000700040DC
:100ED00000380240FFFCFF0FC9F80000FFF7F8FCE4
:100EE000074604E0FFF7F4FCC01B642867D83068AD
:100EF000C0438000F6D5216835480A0301D5E26B6E
:100F00001AB1C9021DD5216CD9B963690168277E60
:100F100002689B01C1F3014143EA0143C2F302713C
:100F200043EA076242EA0171016029686FF0FF033A
:100F300000E04BE0A26A21F4F85103EB02221143D6
:100F400029602168890212D5E16F51450FD1238CA8
:100F50006269016807689201C1F3036142EA0342D2
:100F600042EA0162C7F3027142EA0171016021782D
:100F7000090716D561690268D0F800C08B01277F88
:100F8000C2F30362CCF3014143EA014141EA026149
:100F900041EA077101602868E16A20F440300843A3
:100FA0002860306840F080503060FFF791FC0446C4
:100FB00008E000BFFFF78CFC001B642802D9032067
:100FC000BDE8F88F3068C0438000F3D40020F7E715
:100FD000883802402DE9F04705000F4663D0444EA3
:100FE000306800F00F00B84209D2306820F00F00DE
:100FF00038433060306800F00F00B84253D12868A1
:101000003C4C810712D5400703D5206840F4E050DE
:1010100020602878000703D5206840F460402060F5
:10102000A968206820F0F000084320602878C007F5
:101030002AD0304968680839012810D00968022888
:1010400010D0890700292EDA216821F0030101431D
:101050002160FFF73DFC804641F288390DE00968C8
:101060008903EFE78901EDE7FFF732FCA0EB080108
:10107000494502D90320BDE8F0876868216801F07E
:101080000C01B1EB800FEFD1306800F00F00B842D7
:101090000BD9306820F00F0038433060306800F022
:1010A0000F00B84201D00120E5E72878400705D5B8
:1010B000E968206820F4E0500843206028780007A1
:1010C00006D52869216821F4604141EAC00020600A
:1010D00000F03CF82168084AC1F30311515CC84094
:1010E000064908600020FFF70DFC0020C3E7000060
:1010F000003C024008380240F43200084000002062
:10110000014800687047000040000020044905487D
:1011100009680068044AC1F38221515CC8407047E5
:101120000838024040000020043300080449054804
:1011300009680068044AC1F34231515CC8407047F5
:10114000083802404000002004330008154910B55B
:101150001548096811F00C0213D04110042A0FD071
:10116000082A0ED10F4C241F2268236802F03F0288
:101170005B0207D52068C0F38810A0FB010106E0E0
:10118000084610BD2168C1F38811A1FB00010023AE
:10119000FFF74EF82168C1F30141491C4900B0FB3B
:1011A000F1F010BD083802400024F4002DE9F84F9A
:1011B00005004FF000076ED02878DFF82093A9F1E2
:1011C000040AC007AAF104044CD0D9F8001048461C
:1011D000C1F38101012908D00068C0F38100022811
:1011E0000AD1DAF80000400206D52068800339D51C
:1011F00068680028DFD035E06868B0F5803F0BD024
:1012000010B1B0F5A02F11D0206820F480302060FC
:10121000206820F4802002E0206840F480302060C4
:10122000686890B1FFF754FB06460AE0206840F476
:1012300080202060F0E700BFFFF74AFB801B642896
:1012400072D820688003F7D50CE0FFF741FB064613
:1012500005E000BFFFF73CFB801B6428F0D8206846
:101260008003F7D42878800742D5D9F80010484683
:1012700011F00C0F08D00068C0F3810002280BD1D8
:10128000DAF80000400207D42068800718D5E86823
:10129000012800D114E01EE1E8680028206817D07A
:1012A00040F001002060FFF713FB064605E000BF99
:1012B000FFF70EFB801B0228C2D820688007F7D5F5
:1012C0002869216821F0F80141EAC00020600FE0A0
:1012D00020F001002060FFF7FBFA064605E000BFA2
:1012E000FFF7F6FA801B02281ED820688007F7D483
:1012F0002878000729D5794869696C30002980462B
:10130000016812D041F001010160FFF7E1FA0646E1
:1013100005E000BFFFF7DCFA801B022804D8D8F8EC
:1013200000008007F6D510E089E021F0010101609E
:10133000FFF7CEFA064604E0FFF7CAFA801B022840
:101340007DD8D8F800008007F6D4287840076BD500
:10135000DFF8888108F13808D8F80000C0000BD405
:10136000D8F8001041F08051C8F80010D8F80000FB
:10137000012700F08050009059480168C90512D437
:101380000168834641F480710160FFF7A1FA0646C7
:1013900005E000BFFFF79CFA801B64284FD8DBF8FC
:1013A0000000C005F6D54D4EA868683601280AD061
:1013B00008B1052811D0306820F001003060306895
:1013C00020F0040002E0306840F001003060A868BE
:1013D000A0B1FFF77DFA83460CE0306840F00400CE
:1013E0003060F0E7FFF774FAA0EB0B0141F28830B0
:1013F000814268D830688007F4D50EE0FFF768FABC
:10140000834607E0FFF764FAA0EB0B0141F2883056
:10141000814258D830688007F4D42FB1D8F8001032
:1014200021F08051C8F80010A869E0B3D9F8001085
:10143000C1F3810102294ED00228206800E042E079
:1014400020F08070206003D0FFF742FA05463DE0AF
:10145000FFF73EFA064604E0FFF73AFA801B02283F
:1014600031D820688001F7D4D5E90921DFF874C0AC
:10147000D5E9070695F830304F0895F82C10304321
:101480000CEB074545EA8212104340EA016040EA4E
:101490000370CAF80000206840F080702060FFF7F9
:1014A00017FA054605E014E0FFF712FA401B022880
:1014B00009D820688001F7D50BE000BFFFF708FAD4
:1014C000401B022802D90320BDE8F88F2068800164
:1014D000F4D40020F8E70120F6E7000008380240C5
:1014E000007000400000FFFF2DE9F047040005D028
:1014F00094F85D000025A56218B107E00120BDE861
:10150000F087204684F85C5000F050F8022284F8FE
:101510005D204FF4E0632068016821F04001016024
:10152000E068984201D9002101E04FF48051B0F504
:10153000706F02D0984200D0A5624FF00109266B6F
:101540002EB9984201D9226301E0C4F83090D4E961
:101550000468D4E90102278B46EA0806A36A10430F
:1015600007F4007830432668D4E907C240EA08004F
:1015700040EA0C00CC460427104318433060D4F8EE
:101580001880666B606AE26807EA18472368304390
:101590003A431043084358602068C16921F4006150
:1015A000C161256684F85DC00020A8E770B51A4EB9
:1015B000002205680223194903200524B54286B09C
:1015C00011D10D6845F400550D600968CDE9022080
:1015D00001F4005105914FF4E0411148CDE90013A9
:1015E0006946049413E00F4EB54212D10D6845F4DC
:1015F00000150D600968CDE9022001F40011059184
:101600004FF4C0410848CDE9001369460494FFF740
:1016100069F806B070BD0000003401404438024053
:101620000010024000540140001802402DE9F84F1C
:10163000044690F85C0000269846012817460D469F
:101640000DD04FF0010A84F85CA0FFF741F9834602
:1016500094F85D00B146012804D002267FE0022004
:10166000BDE8F88F002D79D0002F77D0A268032134
:10167000A563A78784F85D10C4F86090E787C4F875
:101680004090A4F84490A4F84690B2F5004FC4F8F6
:101690005090C4F84C9004D12068016841F4804116
:1016A000016020680168490603D4016841F04001E7
:1016B0000160E068B0F5E06F17D83CE02068816811
:1016C000890706D535F8021BC160E08F401EE08710
:1016D0000BE0B8F1000F2CD0B8F1FF3F05D0FFF7B9
:1016E000F7F8A0EB0B01414523D2E08F0028E5D1AC
:1016F00024E02068816889070FD5E18F012905D989
:1017000035F8021BC160E08F801E04E015F8011B54
:101710000173E08F401EE0870DE0B8F1000F08D0A4
:10172000B8F1FF3F07D0FFF7D3F8A0EB0B0141451D
:1017300001D3032613E0E08F0028DAD15A46414650
:10174000204600F025FA08B120202066A06818B9CC
:101750002068C16880680090206E00B1012684F87E
:101760005DA0304684F85C907AE704284FF0E020D2
:10177000016903D021F004010161704741F00401C7
:10178000FAE77047401EB0F1807F10B501D3012009
:1017900010BD4FF0E02460610F21601700F0E6F902
:1017A0000020A0610721216110BD10B5FFF7E9FFFE
:1017B00010BD10B5040003D094F8690010B107E023
:1017C000012010BD002084F86800204600F026F8B3
:1017D000242084F869002068016821F0010101607B
:1017E000204600F0A1FB0128EBD0606A10B1204632
:1017F00000F016FB2068416821F4904141602068A8
:10180000816821F02A0181602068016841F00101AE
:1018100001602046BDE8104000F066BB10B50068CE
:1018200086B00C49884213D10B48016841F400315D
:10183000016000680221002200F4003005900C20B5
:10184000032307248DE81F0004486946FEF74AFF7A
:1018500006B010BD00440040403802400000024085
:101860002DE9F84F044690F86A009A4616460D4650
:10187000202867D1EDB1E6B194F86800012861D065
:101880000027012184F868102220E76684F86A00A6
:101890004C34FFF71DF8814654F8440CA6814FF4F0
:1018A0008058E681FF214C3C404508D1206918B1A1
:1018B0000EE00120BDE8F88F40F2FF100EE04FF07F
:1018C0007F0218B1B0F1805F05D009E0206950B9FE
:1018D000A4F85C1004E0206928B13F20A4F85C0063
:1018E000B4F85C601CE0A4F85C20F9E7B4F85A0096
:1018F000401EA4F85A0000224B4620212046CDF875
:1019000000A000F03DFC08B10320D3E7A0684045EB
:1019100001D1206978B12068406A304005F8010B98
:10192000B4F85A000028E1D1202084F86A00002091
:1019300084F86870BEE721682846AD1C496A3140CA
:101940000180EDE70220B5E7FEE700002DE9F04F4A
:101950004A4887B0016841F010010160016801F058
:1019600010010591016841F004010160016801F076
:1019700004010591016841F001010160016801F075
:1019800001010591016841F002010160016801F067
:1019900002010591016841F008010160016801F050
:1019A00008010591016841F040010160006840F6BE
:1019B0004304DFF8CCB0002200F04000214605903F
:1019C0005846FEF77FFF48F2E0762E480022314667
:1019D000FEF778FF4FF47F672B4800223946FEF769
:1019E00071FF4FF41F48294800224146FEF76AFF65
:1019F0004FF4C069264800224946FEF763FF4FF4C2
:101A0000007A244800225146FEF75CFF0125694612
:101A10005846CDE90045002402940394FEF762FE87
:101A200000966946CDE9015416480394FEF75AFE24
:101A300000976946CDE9015413480394FEF752FE1E
:101A4000CDF800806946CDE9015410480394FEF7B3
:101A500049FECDF800906946CDE901540C48039445
:101A6000FEF740FECDF800A06946CDE901540948D3
:101A70000394FEF737FE07B0BDE8F08F3038024020
:101A80000010024000040240000C02400018024016
:101A900000080240000002402DE9F04110484FF4D8
:101AA000E0660E4D00214FF482770122056000F1BF
:101AB000100847605302C0E902160824802588E810
:101AC0003E0007264162C0E90A1601634163FFF741
:101AD0000BFD002800D0FEE7BDE8F0810034014096
:101AE0005C0000202DE9F04110484FF470650021A2
:101AF0000D4F012200F11008C0E90215530208241D
:101B000088E81E000725016241624FF48276C0E931
:101B10000A1501634163C0E90076FFF7E5FC002880
:101B200000D0FEE7BDE8F08100540140C000002075
:101B30000C48002110B50A4C0C224FF416530460D7
:101B4000C0E90131C160C0E904128161C161016273
:101B50004162FFF72EFE002800D0FEE710BD000016
:101B60000044004024010020FEE7704709070028D8
:101B70004FEA116106DA00F00F0000F1E02080F872
:101B8000141D704700F1E02080F800147047704782
:101B9000F8B515460E4604460B464FF4C051009268
:101BA000002200F019F888B900223346802120462F
:101BB000009500F061F848B9002233464FF4C06147
:101BC0002046009500F008F8002804D0206E40F070
:101BD000200020660320F8BD2DE9F8434FF4C068CB
:101BE0001D4617460E46DDF8209004463DE046456A
:101BF00005D127B9007B8DF800009DF80000681C16
:101C000033D02DB1FEF764FEA0EB0900A8422CD31F
:101C10002068416821F0E00141606068B0F5827F92
:101C20000BD1A068B0F5004F02D0B0F5806F04D1A1
:101C30002068016821F040010160A06AB0F5005FF2
:101C40000AD120684DF6FF720168114001602068DA
:101C5000016841F400510160012184F85D10002009
:101C600084F85C000320BDE8F88320688168314077
:101C7000B942BCD10020F6E72DE9F0411D461646D9
:101C80000F460446DDF8188035E0681C33D02DB1CE
:101C9000FEF71EFEA0EB0800A8422CD32068416886
:101CA00021F0E00141606068B0F5827F0BD1A0684F
:101CB000B0F5004F02D0B0F5806F04D12068016804
:101CC00021F040010160A06AB0F5005F0AD12068F0
:101CD0004DF6FF720168114001602068016841F40F
:101CE00000510160012184F85D10002084F85C003F
:101CF0000320BDE8F081206880683840B042C4D13C
:101D00000020F6E7704710B5FEF7E8FDBDE810408B
:101D1000FFF74BBD2B4830B5B7B0016841F080519B
:101D20000160006800F0805036902748016841F457
:101D300040410160006800250DF1B00C022424949C
:101D40000822D823CDE92A4500F4404036901021DE
:101D50008CE81C0001202F94CDE9270124A8FFF76F
:101D600025FA00B1FEE7FEF761FE00B1FEE74FF491
:101D700080524FF4A0510F20CDE9341231AA07212F
:101D800082E8310031A8FFF725F900B1FEE7802095
:101D9000129500906846FEF77FFE00B1FEE7FFF760
:101DA000AFF94FF47A71B0FBF1F0FFF7EBFC0420D0
:101DB000FFF7DBFC0022501E1146FEF705FE37B090
:101DC00030BD00004038024000700040104A30B57D
:101DD0001048146800210F4B44F470041460083359
:101DE00005680D4A0D4C45F0010505601960036852
:101DF000051D1340074A03600C322C600568E3059B
:101E0000034C25F480250560803C1160236030BDC3
:101E100088ED00E000380240FFFFF6FE103000249D
:101E200090F82410C90706D00168836A4A6822F432
:101E300000321A434A6090F82410890706D50168D9
:101E4000C36A4A6822F480321A434A6090F8241028
:101E5000490706D50168036B4A6822F480221A43B9
:101E60004A6090F82410090706D50168436B4A6858
:101E700022F400421A434A6090F82410C90606D59D
:101E80000168836B8A6822F480521A438A6090F852
:101E90002410890606D50168C36B8A6822F40052B3
:101EA0001A438A6090F82410490611D50168036C22
:101EB0004A6822F480121A434A60016CB1F5801F0F
:101EC00006D10168436C4A6822F4C0021A434A6092
:101ED00090F82410090606D50168826C486820F441
:101EE000002010434860704738B500250446C56699
:101EF000FEF7EEFC03462068006800070BD56FF084
:101F00007E400090002220464FF4001100F038F986
:101F100008B1032038BD202084F8690084F8685097
:101F200084F86A00002038BD2DE9F0470446806837
:101F3000874B884F2668D4E90415E2690843D6F830
:101F400000C0102115430022284315460CEA030C5B
:101F5000814B4CEA000CC6F800C04FF400492068E1
:101F6000D4F80CC0466826F4405646EA0C06466093
:101F70002668D4F82080A069D6F808C040EA080096
:101F80002CF4306C4CEA000CC6F808C02068B8424B
:101F90000AD11B6813F0030352D0012B7AD0022B15
:101FA00076D0032B79D177E06C4EB0420AD11B6812
:101FB00013F00C036AD0042B6CD0082B68D00C2BC8
:101FC0006BD169E0664EB0420AD11B6813F0300352
:101FD0005CD0102B5ED0202B5AD0302B5DD15BE033
:101FE000604EB0420AD11B6813F0C0034ED0402BA4
:101FF00050D0802B4CD0C02B4FD14DE05A4EB04228
:102000000DD11B6813F4407340D0B3F5807F41D0ED
:10201000B3F5007F3CD0B3F5407F3ED13CE0534E5A
:10202000B0420FD11B6813F4406309D0B3F5806F41
:1020300030D0B3F5006F2BD0B3F5406F2DD12BE02E
:1020400001212AE04A4EB0420DD11B6813F44053DF
:102050001CD0B3F5805F1DD0B3F5005F18D0B3F589
:10206000405F1AD118E0434EB04216D11B6813F4FA
:1020700040430BD0B3F5804F0CD04B4508D0B3F59F
:10208000404F0AD108E005E002E0FFE7002104E04C
:10209000022102E0042100E00821E6694E452AD130
:1020A00009291FD2DFE801F00508141E171E1E1EA5
:1020B0001A00FFF72BF801E0FFF738F80146D4F8D3
:1020C0000400490001EB5001B1FBF0F082B20AE0DC
:1020D00029496068F6E7FFF739F8EFE760684FF4E1
:1020E0008031EFE70125216822F00F00C2F34202A0
:1020F0001043C86028E0092925D2DFE801F005086F
:102100000B24102424241C00FFF700F809E0FFF73B
:102110000DF806E06168194A02EB51020EE0FFF784
:1021200015F80146D4E9002001EB5001B1FBF0F0B5
:1021300080B2D06008E0616809EB5102B2FBF1F1B6
:1021400089B2C16000E001252846BDE8F0870000A3
:10215000F369FFEF00100140903802400044004056
:1021600000480040004C0040005000400014014076
:1021700000780040007C00400048E8010024F400A2
:102180002DE9F041984617460E460446069D1DE08F
:10219000681C1BD02DB1FEF79BFBA0EB0800A842EA
:1021A00014D32168202000220B6823F4D0730B6025
:1021B00021688B6823F001038B6084F8690084F840
:1021C0006A00032084F86820BDE8F0812068C069B7
:1021D00036EA000004D00020B842D9D00020F3E74E
:1021E0000120F9E7FEE700000048704744000020A6
:1021F00010B52DED020B84B09DED040B51EC100BCE
:10220000FEF7ACF841EC100B9DED041B05989FED1B
:102210001A2B31EE401B9FED1A3B9FED1B4B10F02C
:10222000004F0AD0B4EEC41BF1EE10FA0AD9B4EE96
:10223000C31BF1EE10FA0FDD0CE0B4EEC41BF1EE9F
:1022400010FA02D230EE420B06E0B4EEC31BF1EE00
:1022500010FA01DB30EE020B8DED020B9DED040B4D
:102260008DED000B10EE900A039961F31E000390B0
:102270009DED020B06B010BD000000000000F03F15
:10228000000000000000E03F000000000000E0BF90
:1022900002E008C8121F08C1002AFAD1704770472F
:1022A000002001E001C1121F002AFBD1704700008D
:1022B0002DED088B82B0FEF719FBFFF72BFDFFF722
:1022C00045FBFFF70FFCFFF7E7FBFFF731FCFF498A
:1022D000FD4808600846FEF778F900B1FEE70020E7
:1022E000009001900246F9486946FEF74DF900B1A9
:1022F000FEE7F74CB5EE009B9FEDF68B94ED040ADC
:102300000021B7EEC00A20EE090B20EE080BBCEE50
:10231000C00B10EE100AE071EC48FEF799F9E37972
:102320000822EA480021FEF785F9EC4DA71DDFF8E9
:10233000B093BE1DDFF8ACB34FF4007AB2EE04AB3D
:102340004FF03008E5490A224FF47A73A1F170008A
:10235000FFF786FA2878422844D0A9793970E979BC
:10236000DB483170801D86F80180FDF792FF206305
:10237000D7480C30FDF78DFFE0620146206B6422E8
:10238000504320630144D14800EE101A0021B8EEFA
:10239000C00A84ED040AFEF75BF9E3790822CB4812
:1023A0000021FEF747F9A87831284CD03028C9D150
:1023B000A87930287DD0A81DFDF76BFF00EE100A2C
:1023C0009FEDC91BE81DB8EEC00B20EE01BBFDF769
:1023D00060FF00EE100AB8EEC00B00EE0ABBB7EECD
:1023E000CB0BFDE369783970A978B9483170801D4D
:1023F00086F80180FDF74DFF2063B5480C30FDF7EE
:1024000048FFE0626421226B4A43226300211044AA
:1024100000EE100AB8EEC01A84ED041AB7EEC10A35
:1024200020EE090B20EE080BBCEEC00B10EE100ADC
:10243000E071A648FEF70CF9E3790822A3480021D1
:10244000FEF7F8F87EE7E87831287DD02879302843
:102450007BD09F49091D08700846FDF71AFFA0624E
:102460009B48001DFDF715FF0A2190FBF1F0A061CC
:1024700097486979401D0170FDF70BFF0A2190FB19
:10248000F1F0E061217E0844E0709FED990B9FED33
:102490009A3B9FED9B1BC0B202EE100AB1EE044BBB
:1024A000B8EE422B22EE002B82EE030BB7EEC02BD0
:1024B00000E0FDE3B7EEC20A84ED052A20EE010B31
:1024C00080EE041BB7EEC11B84ED081AB7EEC10AFB
:1024D000FFF78EFEBDEEC00B10EE100A6062A0701A
:1024E0006420FEF7EDF8002248464FF48071FEF7B5
:1024F000E9F921786423A0781022090341EA001049
:1025000020817349714808317830FFF78FF8012036
:10251000FEF7D6F8012248461102FEF7D3F9002251
:1025200048464FF48071FEF7CDF960786423A178B6
:102530001022000340EA01106081654963480A31B6
:102540007830FFF773F801E0F9E0FAE00120FEF7D8
:10255000B7F8012248461102FEF7B4F96A4851461D
:10256000FEF7ACF90120FEF7ABF868485146FEF7DC
:10257000A5F90120FEF7A4F8287830287DD031286D
:102580007FF460AF624800220221FEF79BF9012030
:10259000FEF796F85E4800220121FEF793F901202C
:1025A000FEF78EF85B4800225146FEF78BF90120BA
:1025B000FEF786F8574800224FF48071FEF782F943
:1025C0000120FEF77DF8534800228021FEF77AF9BA
:1025D0000120FEF775F84F4800224021FEF772F9FE
:1025E0000120FEF76DF84B4800222021FEF76AF922
:1025F0000120FEF765F8002248464FF40041FEF73F
:1026000061F90120FEF75CF8002248464FF4805142
:10261000FEF758F90120FEF753F8687830287BD090
:1026200031287AD0322879D0332878D0342877D01E
:10263000352876D03628A3D1002248464FF40061D1
:10264000FEF740F90120FEF73BF8002248464FF420
:102650008061FEF737F90120FEF732F8002251467B
:102660004846FEF72FF90120FEF72AF800225846C7
:102670008021FEF727F9012000E069E0FEF720F84D
:10268000002258464021FEF71DF90120FEF718F8F8
:10269000002258462021FEF715F90120FEF710F818
:1026A000012258461021FEF70DF90120FEF708F827
:1026B00001225846D102FEF705F9012258464FF48F
:1026C0008061FEF7FFF82DE0007400404800002014
:1026D000000000200000000000E06F409401002096
:1026E00000180240000C02400000000000005940A9
:1026F00033333333333340400000000000408F4019
:10270000000000000000704000000240000802408D
:10271000001002400004024089E3D3E3FEE3FEE33D
:10272000FEE3FEE3012251465846FEF7CBF80122B4
:1027300058464FF48071FEF7C5F8012264E1642029
:10274000A2E6FF4869790170FDF7A3FDE0619BE611
:10275000002248464FF40061FEF7B4F80120FDF76F
:10276000AFFF002248464FF48061FEF7ABF801202E
:10277000FDF7A6FF002251464846FEF7A3F80120C8
:10278000FDF79EFF002258468021FEF79BF80120AE
:10279000FDF796FF002258464021FEF793F80120EE
:1027A000FDF78EFF002258462021FEF78BF801200E
:1027B000FDF786FF002258461021FEF783F801201E
:1027C000FDF77EFF6878312861D032287ED033282B
:1027D0007DD034287CD035287BD036287AD0372855
:1027E00079D0382878D039287FF42CAED54800220B
:1027F0000221FEF767F80120FDF762FFD1480022B1
:102800000121FEF75FF80120FDF75AFFCE480022B4
:102810005146FEF757F80120FDF752FFCA48002243
:102820004FF48071FEF74EF80120FDF749FFC648CE
:1028300000228021FEF746F80120FDF741FFC24843
:1028400000224021FEF73EF80120FDF739FFBE4887
:1028500000222021FEF736F80120FDF731FF00228B
:1028600048464FF40041FEF72DF80120FDF728FF00
:10287000012248461103FEF725F80120FDF720FF4D
:1028800001225846D102FEF71DF800220EE3AD48A2
:1028900001220221FEF716F80120FDF711FFA948D9
:1028A00000220121FEF70EF80120FDF709FFA648DE
:1028B00000225146FEF706F80120FDF701FFA2486D
:1028C00000224FF48071FDF7FDFF06E039E0A1E042
:1028D000F2E050E1A3E1FCE14DE20120FDF7F0FE62
:1028E000994800228021FDF7EDFF0120FDF7E8FE69
:1028F000954800224021FDF7E5FF0120FDF7E0FEAD
:10290000914800222021FDF7DDFF0120FDF7D8FED0
:10291000002248464FF40041FDF7D4FF0120FDF7A7
:10292000CFFE002248464FF48051FDF7CBFF012037
:10293000FDF7C6FE01225846D102FDF7C3FF012272
:1029400050E0804800220221FDF7BCFF0120FDF786
:10295000B7FE01227B481146FDF7B4FF0120FDF7C9
:10296000AFFE794800225146FDF7ACFF0120FDF78C
:10297000A7FE754800224FF48071FDF7A3FF0120E8
:10298000FDF79EFE704800228021FDF79BFF01208D
:10299000FDF796FE6C4800224021FDF793FF0120D1
:1029A000FDF78EFE684800222021FDF78BFF0120F5
:1029B000FDF786FE002248464FF40041FDF782FFF6
:1029C0000120FDF77DFE002248464FF48051FDF7BF
:1029D00079FF0120FDF774FE01225846D102FDF770
:1029E00071FF002258464FF48061FDF76BFF012212
:1029F00051465846FDF766FF5FF0010258464FF416
:102A00008071FDF75FFF00224F484FF40041FDF752
:102A100059FF97E44B4800220221FDF753FF0120A4
:102A2000FDF74EFE474800220121FDF74BFF012034
:102A3000FDF746FE444801225146FDF743FF0120C1
:102A4000FDF73EFE404800224FF48071FDF73AFF4B
:102A50000120FDF735FE3C4800228021FDF732FFC2
:102A60000120FDF72DFE384800224021FDF72AFF06
:102A70000120FDF725FE344800222021FDF722FF2A
:102A80000120FDF71DFE002248464FF40041FDF7EE
:102A900019FF0120FDF714FE002248464FF4805133
:102AA000FDF710FF0120FDF70BFE01225846D10271
:102AB000FDF708FF012257E0224800220221FDF71E
:102AC00001FF0120FDF7FCFD1E4800220121FDF75A
:102AD000F9FE0120FDF7F4FD1B4800225146FDF7E9
:102AE000F1FE0120FDF7ECFD012217481102FDF770
:102AF000E9FE0120FDF7E4FD134800228021FDF7E7
:102B0000E1FE0120FDF7DCFD0F4800224021FDF72A
:102B1000D9FE0120FDF7D4FD0B4800222021FDF74E
:102B2000D1FE0120FDF7CCFD002248464FF40041C4
:102B3000FDF7C8FE0120FDF7C3FD002206E00000FE
:102B40000500002000100240000402404FF48051B4
:102B50004846FDF7B7FE0120FDF7B2FD01225846B9
:102B6000D102FDF7AFFE002258464FF48061FDF719
:102B7000A9FE00223CE7FF4800220221FDF7A2FE49
:102B80000120FDF79DFDFB4800220121FDF79AFE83
:102B90000120FDF795FDF84800225146FDF792FE11
:102BA0000120FDF78DFDF44800224FF48071FDF700
:102BB00089FE0120FDF784FDEF4801228021FDF709
:102BC00081FE0120FDF77CFDEB4800224021FDF74E
:102BD00079FE0120FDF774FD0022E748202100E086
:102BE000DAE2FDF76FFE0120FDF76AFD002248469C
:102BF0004FF40041FDF766FE0120FDF761FD002264
:102C000048464FF48051FDF75DFE0120FDF758FD69
:102C100001225846D102FDF755FE012252E0D54867
:102C200000220221FDF74EFE0120FDF749FDD148AB
:102C300000220121FDF746FE0120FDF741FDCE48AF
:102C400000225146FDF73EFE0120FDF739FDCA483E
:102C500000224FF48071FDF735FE0120FDF730FDB5
:102C6000C54800228021FDF72DFE0120FDF728FD3B
:102C7000C14801224021FDF725FE0120FDF720FD7E
:102C8000BD4800222021FDF71DFE0120FDF718FDA3
:102C9000002248464FF40041FDF714FE0120FDF7E5
:102CA0000FFD002248464FF48051FDF70BFE00E077
:102CB00064E20120FDF704FD01225846D102FDF730
:102CC00001FE002258464FF48061FDF7FBFD012212
:102CD000A7E0A84800220221FDF7F4FD0120FDF73E
:102CE000EFFCA44800220121FDF7ECFD0120FDF7D7
:102CF000E7FCA14800225146FDF7E4FD0120FDF765
:102D0000DFFC9D4800224FF48071FDF7DBFD0120C0
:102D1000FDF7D6FC984800228021FDF7D3FD012065
:102D2000FDF7CEFC944800224021FDF7CBFD0120A9
:102D3000FDF7C6FC904801222021FDF7C3FD0120CC
:102D4000FDF7BEFC002248464FF40041FDF7BAFDF6
:102D50000120FDF7B5FC002248464FF48051FDF7F5
:102D6000B1FD0120FDF7ACFC01225846D102FDF770
:102D7000A9FD01224FE07F4800220221FDF7A2FDBC
:102D80000120FDF79DFC7B4800220121FDF79AFD03
:102D90000120FDF795FC784800225146FDF792FD91
:102DA0000120FDF78DFC744800224FF48071FDF77F
:102DB00089FD0120FDF784FC6F4800228021FDF78A
:102DC00081FD0120FDF77CFC6B4800224021FDF7CE
:102DD00079FD0120FDF774FC674800222021FDF7F2
:102DE00071FD0120FDF76CFC01224846D103FDF77F
:102DF00069FD0120FDF764FC002248464FF4805134
:102E0000FDF760FD0120FDF75BFC01225846D10271
:102E1000FDF758FD002258464FF48061FDF752FD42
:102E2000002251465846FDF74DFD0022E6E50122FD
:102E30004846D102FDF746FD0120FDF741FC002286
:102E400048464FF48061FDF73DFD0120FDF738FC59
:102E5000002251464846FDF735FD0120FDF730FCC4
:102E6000002258468021FDF72DFD0120FDF728FCAA
:102E7000002258464021FDF725FD0120FDF720FCEA
:102E8000002258462021FDF71DFD0120FDF718FC0A
:102E9000002258461021FDF715FD0120FDF710FC1A
:102EA00001225846D102FDF70DFD012258464FF48C
:102EB0008061FDF707FD002251465846FDF702FDEF
:102EC000002235E4002248464FF40061FDF7FAFC89
:102ED0000120FDF7F5FB012248469102FDF7F2FCC7
:102EE0000120FDF7EDFB002251464846FDF7EAFCC4
:102EF0000120FDF7E5FB002258468021FDF7E2FCAA
:102F00000120FDF7DDFB002258464021FDF7DAFCE9
:102F10000120FDF7D5FB0022202103E017E062E04D
:102F2000A2E0E9E05846FDF7CDFC0120FDF7C8FB23
:102F3000002258461021FDF7C5FC0120FDF7C0FB1B
:102F400001225846D102FDF7BDFC002244E00022D8
:102F500048464FF40061FDF7B5FC0120FDF7B0FBDA
:102F6000002248464FF48061FDF7ACFC0120FDF7DC
:102F7000A7FB03E00010024000040240012251467A
:102F80004846FDF79FFC0120FDF79AFB00225846BA
:102F90008021FDF797FC0120FDF792FB00225846A7
:102FA0004021FDF78FFC0120FDF78AFB00225846E7
:102FB0002021FDF787FC0120FDF782FB0022584607
:102FC0001021FDF77FFC0120FDF77AFB0122584616
:102FD000D102FDF777FC012258464FF48061FDF7DE
:102FE00071FC012268E7002248464FF40061FDF7BA
:102FF00069FC0120FDF764FB002248464FF4806124
:10300000FDF760FC0120FDF75BFB002251464846BE
:10301000FDF758FC0120FDF753FB012258468021A3
:10302000FDF750FC0120FDF74BFB002258464021E4
:10303000FDF748FC0120FDF743FB00225846202104
:10304000FDF740FC0120FDF73BFB00225846102114
:10305000FDF738FC0120FDF733FB01225846D10271
:10306000FDF730FC00223FE0002248464FF40061AB
:10307000FDF728FC0120FDF723FB002248464FF412
:103080008061FDF71FFC0120FDF71AFB002251466D
:103090004846FDF717FC0120FDF712FB00225846B9
:1030A0008021FDF70FFC0120FDF70AFB01225846A5
:1030B0004021FDF707FC0120FDF702FB00225846E6
:1030C0002021FDF7FFFB0120FDF7FAFA0022584608
:1030D0001021FDF7F7FB0120FDF7F2FA0122584617
:1030E000D102FDF7EFFB012258464FF48061FDF756
:1030F000E9FB0022FFF717BB002248464FF40061AE
:10310000FDF7E0FB0120FDF7DBFA002248464FF413
:103110008061FDF7D7FB0120FDF7D2FA002251466E
:103120004846FDF7CFFB0120FDF7CAFA00225846BA
:103130008021FDF7C7FB0120FDF7C2FA00225846A7
:103140004021FDF7BFFB0120FDF7BAFA01225846E6
:103150002021FDF7B7FB0120FDF7B2FA0022584607
:103160001021FDF7AFFB0120FDF7AAFA0122584616
:10317000D102FDF7A7FB0022FFF7A0BAE8793028BB
:103180000BD0E81DFDF785F800EE100AB8EEC00B75
:1031900020EE0A0BB7EEC00B06E05248FDF779F8B7
:1031A00000EE100AB8EEC00A002184ED040AB7EE62
:1031B000C00A20EE090B20EE080BBCEEC00B10EE8F
:1031C000100AE0714848FDF743FAE37908224648BF
:1031D0000021FDF72FFA454800220221FDF772FB7E
:1031E0000120FDF76DFA414800220121FDF76AFB3D
:1031F0000120FDF765FA3E4800225146FDF762FBCB
:103200000120FDF75DFA3A4800224FF48071FDF786
:1032100059FB0120FDF754FA354800228021FDF7C3
:1032200051FB0120FDF74CFA314800224021FDF707
:1032300049FB0120FDF744FA2D4800222021FDF72B
:1032400041FB0120FDF73CFA002248464FF40041C3
:10325000FDF738FB0120FDF733FA002248464FF412
:103260008051FDF72FFB0120FDF72AFA0022484686
:103270004FF40061FDF726FB0120FDF721FA002243
:1032800048464FF48061FDF71DFB0120FDF718FA59
:10329000002251464846FDF715FB0120FDF710FAC4
:1032A000002258468021FDF70DFB0120FDF708FAAA
:1032B000002258464021FDF705FB0120FDF700FAEA
:1032C000002258462021FDF7FDFA0120FDF7F8F90C
:1032D000002258461021FDF7F5FA0120FDF7F0F91C
:1032E000FFF730B89C010020480000200010024089
:1032F000000402400000000000000000010203047E
:1033000006070809000000000102030400404040D5
:1033100040404040404041414141414040404040A8
:103320004040404040404040404040404005020254
:103330000202020202020202020202020220202013
:10334000202020202020200202020202020290906F
:10335000909090901010101010101010101010106D
:1033600010101010101010100202020202028888C1
:1033700088888888080808080808080808080808CD
:1033800008080808080808080202020240000000B5
:103390000D330008B433000800000020480000008E
:1033A00090220008FC330008480000205805000067
:1033B000A02200080105000000000000000000003D
:1033C00000000000000000000000000000000000FD
:1033D00000000000000000000000000000000000ED
:1033E00000000000000000000100000010000000CC
:0C33F000000000000024F40000000000B9
:04000005080001F9F5
:00000001FF
