:020000040800F2
:10000000880500200D0200081B1A0008F9170008D7
:10001000191A0008370400089520000800000000A5
:10002000000000000000000000000000B51B0008F8
:1000300039040008000000003F1A0008B71B000840
:1000400027020008270200082702000827020008EC
:1000500027020008270200082702000827020008DC
:1000600027020008270200082702000827020008CC
:1000700027020008270200082702000827020008BC
:1000800027020008270200082702000827020008AC
:10009000270200082702000827020008270200089C
:1000A000270200082702000827020008270200088C
:1000B000270200082702000827020008270200087C
:1000C000270200082702000827020008270200086C
:1000D000270200082702000827020008270200085C
:1000E000270200082702000827020008270200084C
:1000F000270200082702000827020008270200083C
:10010000270200082702000827020008270200082B
:10011000270200082702000827020008270200081B
:10012000270200082702000827020008270200080B
:1001300027020008270200082702000827020008FB
:1001400027020008270200082702000827020008EB
:1001500027020008270200082702000827020008DB
:1001600027020008270200082702000827020008CB
:1001700027020008270200082702000800000000EC
:1001800027020008270200082702000827020008AB
:10019000270200082702000827020008270200089B
:1001A000270200082702000827020008270200088B
:1001B000270200082702000827020008270200087B
:1001C000270200082702000800000000270200089C
:1001D000270200082702000827020008270200085B
:1001E000270200082702000827020008270200084B
:1001F0002702000827020008DFF80CD000F0ACF856
:10020000004800475921000888050020064880471B
:1002100006480047FEE7FEE7FEE7FEE7FEE7FEE7EB
:10022000FEE7FEE7FEE7FEE77D1C0008F901000897
:100230002DE9F05F0546002092469B46884606461B
:10024000814640241BE0284641464746224600F0AE
:100250002FF853465A46C01A914110D311461846FA
:10026000224600F016F82D1A67EB01084F46224689
:100270000120002100F00DF817EB00094E41201E6F
:10028000A4F10104DFDC484631462A464346BDE876
:10029000F09F202A04DB203A00FA02F10020704788
:1002A0009140C2F1200320FA03F3194390407047B4
:1002B000202A04DB203A21FA02F00021704721FABB
:1002C00002F3D040C2F12002914008431946704722
:1002D0002DE9F041054621F000400C46284309D0A5
:1002E000C4F30A5040F23341884205DD28462146D6
:1002F000BDE8F0812846FBE740F2FE31884210DC81
:100300000CDB4FEA043040EA155050EA053105D0C5
:10031000104804F0004101430020E9E700200146B5
:10032000E6E7A0F233404642C6F1400228462146A5
:10033000FFF7AFFF07468846284621463246FFF7BB
:10034000B7FF43463A4600F019F83246BDE8F0419F
:10035000FFF79FBF0000F03F064C074D06E0E06846
:1003600040F0010394E8070098471034AC42F6D3FC
:10037000FFF746FF483100086831000810B5141E29
:1003800073F1000408DA401C41F1000192185B414E
:100390001A4301D120F0010010BD2DE9F04D924625
:1003A0009B4611B1B1FA81F202E0B0FA80F220323C
:1003B0009046FFF76EFF04460F4640EA0A0041EA06
:1003C0000B0153465A46084313D0114653EA010025
:1003D00019D0C8F140025046FFF76AFF05460E46A5
:1003E000504659464246FFF754FF084305D00120C6
:1003F00004E020463946BDE8F08D0020054346EA7A
:10040000E0762C4337430A986305E40AA0EB080022
:100410000022FD0A44EA47540A3002D50020014672
:10042000E9E7010510196941DDE90845001969414D
:10043000BDE8F04DA2E7FEE7704770B54379012BA8
:100440001AD00124447102230371056840F6FE7638
:10045000D1E900310B4329689640B1439340C0264F
:100460000B432B60016896400A68B2430A60002380
:1004700004714371184670BD022070BD70B5040050
:1004800003D02079002510B105E0012070BD204681
:10049000657100F007F802212171012025612071AA
:1004A000002070BD00B5006887B00B49884211D1AB
:1004B0000A48016841F000510160006803210022F0
:1004C00000F00050059010208DE8070004486946B0
:1004D00000F060F807B000BD0074004040380240F2
:1004E0000000024008B5002901680091006810442E
:1004F00004D0143000900360002008BD0830F9E7F4
:1005000030B54279012A17D00122427102240471C8
:10051000002902FA01F301680C6844EA03040C6044
:1005200001680B680AD00D6803F48024B4F5802FAD
:1005300005F460130FD015E0022030BD0C6803F005
:100540000403042B04F038040CD1382C0AD14B6876
:1005500043F0010305E0B3F5601F03D14B6843F09E
:1005600002034B60002102714171084630BD00005A
:1005700070B5044600F004F90546601C02D004483A
:100580000078044400F0FCF8401BA042FAD370BD90
:10059000200000202DE9F84FDFF89CE100224FF009
:1005A00001084FF0030B4FF00F0A00BF0B6808FA69
:1005B00002F42340A34271D14D68022D01D0122DC7
:1005C0000FD1D5080E69570700EB8505A9462D6A9E
:1005D000FF0E0AFA07FCBE4025EA0C052E43C9F8B7
:1005E00020600F79550006680BFA05FC07F0030739
:1005F00026EA0C06AF40374307604E68012E05D04F
:10060000022E03D0112E01D0122E0ED18668CF6893
:1006100026EA0C06AF403743876046680F79A64349
:10062000C7F30017974037434760C4688E6824EAD1
:100630000C04AE402643C6604C68E40075D53F4CC0
:10064000256845F480452560246822F00306950757
:1006500004F4804400943A4C2D0F2644D6F8084800
:10066000DFF8E0C00AFA05F7604524EA070401D183
:1006700000272EE0344FB84201D1012729E0334F43
:10068000B84201D1022724E0314FB84201D10327FB
:100690001FE0304FB84202D104271AE045E02E4F48
:1006A000B84201D1052714E02C4FB84201D10627EA
:1006B0000FE02B4FB84201D107270AE0294FB8427B
:1006C00001D1082705E0284FB84201D1092700E0F1
:1006D0000A27AF4027437546C6F808784E68DEF80B
:1006E0000040F60324EA030400D51C43124E2C609C
:1006F000361D4D683468AD0324EA030400D51C435D
:100700000D4F346008374D683C68ED0224EA03045D
:1007100000D51C43084D3C600C354E682C68B60271
:1007200024EA030400D51C432C60521C102AFFF459
:100730003DAFBDE8F88F0000003C01404438024066
:100740000030014000000240000402400008024066
:10075000000C024000100240001402400018024049
:10076000001C0240002002400024024042694A402E
:10077000426170470AB1816170470904FBE70000DC
:10078000014880687047000020000020024881680E
:10079000027811448160704720000020032010B5CA
:1007A00000F08AF8002000F005F800F023F800209F
:1007B00010BD000070B50D4D04464FF47A700C4A20
:1007C00029781268B0FBF1F0B2FBF0F000F032FFD4
:1007D00048B9102C07D200222146501E00F04CF8D8
:1007E00000206C6070BD012070BD00002000002062
:1007F0002C0000201F4808B5016841F080510160BD
:10080000006800F0805000901A48001D016841F413
:1008100080410160006800F480400090032000F0F7
:100820004BF800226FF00B00114600F025F8002273
:100830006FF00A00114600F01FF800226FF0090067
:10084000114600F019F80022501F114600F014F86C
:100850000022101F114600F00FF80022901E1146D2
:1008600000F00AF80022BDE80840501E114600F0D2
:1008700003B80000403802400E4BF0B41B680D4630
:10088000C3F30223C3F10706042E00D90426191D61
:10089000072901D2002300E0DB1E012404FA06F13F
:1008A0009C40491E2940641E994014402143F0BCDD
:1008B00001F0B4B80CED00E0064900F0070210B5F5
:1008C0004FF6FF040868044B204040EA022018431A
:1008D000086010BD0CED00E00000FA051848F8B5FE
:1008E000016841F0805101600068164C00F08050B2
:1008F0000090206840F480302060FFF741FF4FF403
:100900007A76054605E000BFFFF73AFF401BB0428C
:100910000FD86068C003F7D5206840F4003020602D
:10092000FFF72EFF054606E0FFF72AFF401BB04207
:1009300001D90320F8BD60688003F5D50020F8BD1B
:1009400040380240007000402DE9F84F044600781E
:10095000DFF824944FF000063746C0070ED0D9F8D0
:10096000001021F40001C9F80010D9F80010626BE2
:100970001143C9F80010606B00B90126FE4D2068D4
:10098000843500030ED5E16B286820F4401008433D
:100990002860E06BB0F5801F01D010B102E00126A5
:1009A00000E0012720684FF4800BC0020CD5216CB9
:1009B000286820F4400008432860206C584501D185
:1009C000012601E000B901272068C10100D50126F8
:1009D000800666D5E8483830016841F080510160F2
:1009E0000068DFF898A300F080500090DAF800105B
:1009F00041F48071CAF80010FFF7C2FE804605E09E
:100A0000FFF7BEFEA0EB080064287DD8DAF80000EE
:100A1000C005F5D5DFF8608308F16808D8F8000054
:100A200010F440702AD0218E01F44071814225D00B
:100A3000D8F80010D8F8002021F4407142F4803238
:100A4000C8F80020D8F8002022F48032C8F800202E
:100A5000C8F80010D8F80000C0070FD0FFF790FECC
:100A6000824607E0FFF78CFEA0EB0A0141F28830D6
:100A70008142CAD8D8F800008007F3D5206BC0F3B4
:100A8000012103297ED0D9F8001021F4F811C9F80A
:100A90000010228ED8F80010C2F30B021143C8F8E0
:100AA00000102078C00607D5286820F080702860E4
:100AB0002868A16B084328602188AF488830490422
:100AC00005D5626E016821F440311143016021882F
:100AD000090405D5A26E016821F44021114301608B
:100AE0002168C90305D5E26E016821F44011114364
:100AF00001602168890305D5226F016821F4400156
:100B000011430160217800E034E1490605D5626CAB
:100B1000016821F00301114301602178090605D520
:100B2000A26C016821F00C01114301602188C90504
:100B300005D5E26C016821F0300111430160218884
:100B4000890505D5226D016821F0C00111430160BE
:100B50002188490505D5626D016821F44071114372
:100B600001602188090505D5A26D016821F4406165
:100B7000114301602188C90407D5E26D016821F4A1
:100B8000405100E05FE0114301602188890405D5F0
:100B9000226E016821F4404111430160216849023D
:100BA00005D5A26F016821F08061114301602168C1
:100BB0004FF0006A890209D5E26F016821F00061F7
:100BC00011430160E16F514500D1012721680A07F7
:100BD00000D50127490305D5626F016821F04071F6
:100BE000114301602168090206D5D4F8802001680C
:100BF00021F08051114301602168490106D5D4F8E4
:100C00008420016821F00051114301602068000137
:100C100006D5D4F88810286820F0007008432860B2
:100C20002068C00006D5D4F88C10286820F08060B9
:100C300008432860DFF84891012E0ED02068B0F1FB
:100C4000007F0AD08FE04F4AD9F80030104023F4DB
:100C5000F8120243C9F800201BE7D9F800004E46FD
:100C600020F08060C9F80000FFF78AFD804605E0AB
:100C7000FFF786FDA0EB080064287BD830680001F0
:100C8000F6D421783C487C30C90712D0616B81B919
:100C9000237A62680168D0F800C09201C1F3014173
:100CA00042EA0142CCF3036142EA016141EA037185
:100CB000016021680A0303D5E26BB2F5801F04D0FE
:100CC000C9021AD5216C594517D16368016894F897
:100CD0000CC002689B01C1F3014143EA0141C2F328
:100CE000027241EA0C6141EA027101602968626A9C
:100CF00021F01F01521E114329602168C90110D53E
:100D0000238A62680168D0F800C09201C1F30361D0
:100D100042EA034242EA0162CCF3027142EA017103
:100D20000160216889010CD56168228A237B94F8CF
:100D300008C0890141EA024141EA036141EA0C71BC
:100D400001603168B04641F080613160FFF718FD05
:100D5000064604E0FFF714FD801B64280AD8D8F883
:100D600000000001F6D5E7B3D9F800004E4620F0A8
:100D7000805009E07BE0000008380240007000402D
:100D800000380240FFFCFF0FC9F80000FFF7F8FC35
:100D9000074604E0FFF7F4FCC01B642867D83068FE
:100DA000C0438000F6D5216835480A0301D5E26BBF
:100DB0001AB1C9021DD5216CD9B963690168277EB2
:100DC00002689B01C1F3014143EA0143C2F302718E
:100DD00043EA076242EA0171016029686FF0FF038C
:100DE00000E04BE0A26A21F4F85103EB0222114328
:100DF00029602168890212D5E16F51450FD1238CFA
:100E00006269016807689201C1F3036142EA034223
:100E100042EA0162C7F3027142EA0171016021787E
:100E2000090716D561690268D0F800C08B01277FD9
:100E3000C2F30362CCF3014143EA014141EA02619A
:100E400041EA077101602868E16A20F440300843F4
:100E50002860306840F080503060FFF791FC044615
:100E600008E000BFFFF78CFC001B642802D90320B8
:100E7000BDE8F88F3068C0438000F3D40020F7E766
:100E8000883802402DE9F04705000F4663D0444EF4
:100E9000306800F00F00B84209D2306820F00F002F
:100EA00038433060306800F00F00B84253D12868F2
:100EB0003C4C810712D5400703D5206840F4E05030
:100EC00020602878000703D5206840F46040206047
:100ED000A968206820F0F000084320602878C00747
:100EE0002AD0304968680839012810D009680228DA
:100EF00010D0890700292EDA216821F0030101436F
:100F00002160FFF73DFC804641F288390DE0096819
:100F10008903EFE78901EDE7FFF732FCA0EB080159
:100F2000494502D90320BDE8F0876868216801F0CF
:100F30000C01B1EB800FEFD1306800F00F00B84228
:100F40000BD9306820F00F0038433060306800F073
:100F50000F00B84201D00120E5E72878400705D509
:100F6000E968206820F4E0500843206028780007F2
:100F700006D52869216821F4604141EAC00020605B
:100F800000F03CF82168084AC1F30311515CC840E5
:100F9000064908600020FFF70DFC0020C3E70000B1
:100FA000003C0240083802402E3100082C0000208E
:100FB00001480068704700002C00002004490548E3
:100FC00009680068044AC1F38221515CC840704737
:100FD000083802402C0000203E3100080449054832
:100FE00009680068044AC1F34231515CC840704747
:100FF000083802402C0000203E310008154910B589
:101000001548096811F00C0213D04110042A0FD0C2
:10101000082A0ED10F4C241F2268236802F03F02D9
:101020005B0207D52068C0F38810A0FB010106E031
:10103000084610BD2168C1F38811A1FB00010023FF
:10104000FFF7F6F82168C1F30141491C4900B0FBE4
:10105000F1F010BD083802400024F4002DE9F84FEB
:1010600005004FF000076ED02878DFF82093A9F133
:10107000040AC007AAF104044CD0D9F8001048466D
:10108000C1F38101012908D00068C0F38100022862
:101090000AD1DAF80000400206D52068800339D56D
:1010A00068680028DFD035E06868B0F5803F0BD075
:1010B00010B1B0F5A02F11D0206820F4803020604E
:1010C000206820F4802002E0206840F48030206016
:1010D000686890B1FFF754FB06460AE0206840F4C8
:1010E00080202060F0E700BFFFF74AFB801B6428E8
:1010F00072D820688003F7D50CE0FFF741FB064665
:1011000005E000BFFFF73CFB801B6428F0D8206897
:101110008003F7D42878800742D5D9F800104846D4
:1011200011F00C0F08D00068C0F3810002280BD129
:10113000DAF80000400207D42068800718D5E86874
:10114000012800D114E01EE1E8680028206817D0CB
:1011500040F001002060FFF713FB064605E000BFEA
:10116000FFF70EFB801B0228C2D820688007F7D546
:101170002869216821F0F80141EAC00020600FE0F1
:1011800020F001002060FFF7FBFA064605E000BFF3
:10119000FFF7F6FA801B02281ED820688007F7D4D4
:1011A0002878000729D5794869696C30002980467C
:1011B000016812D041F001010160FFF7E1FA064633
:1011C00005E000BFFFF7DCFA801B022804D8D8F83E
:1011D00000008007F6D510E089E021F001010160F0
:1011E000FFF7CEFA064604E0FFF7CAFA801B022892
:1011F0007DD8D8F800008007F6D4287840076BD552
:10120000DFF8888108F13808D8F80000C0000BD456
:10121000D8F8001041F08051C8F80010D8F800004C
:10122000012700F08050009059480168C90512D488
:101230000168834641F480710160FFF7A1FA064618
:1012400005E000BFFFF79CFA801B64284FD8DBF84D
:101250000000C005F6D54D4EA868683601280AD0B2
:1012600008B1052811D0306820F0010030603068E6
:1012700020F0040002E0306840F001003060A8680F
:10128000A0B1FFF77DFA83460CE0306840F004001F
:101290003060F0E7FFF774FAA0EB0B0141F2883001
:1012A000814268D830688007F4D50EE0FFF768FA0D
:1012B000834607E0FFF764FAA0EB0B0141F28830A8
:1012C000814258D830688007F4D42FB1D8F8001084
:1012D00021F08051C8F80010A869E0B3D9F80010D7
:1012E000C1F3810102294ED00228206800E042E0CB
:1012F00020F08070206003D0FFF742FA05463DE001
:10130000FFF73EFA064604E0FFF73AFA801B022890
:1013100031D820688001F7D4D5E90921DFF874C0FD
:10132000D5E9070695F830304F0895F82C10304372
:101330000CEB074545EA8212104340EA016040EA9F
:101340000370CAF80000206840F080702060FFF74A
:1013500017FA054605E014E0FFF712FA401B0228D1
:1013600009D820688001F7D50BE000BFFFF708FA25
:10137000401B022802D90320BDE8F88F20688001B5
:10138000F4D40020F8E70120F6E700000838024016
:10139000007000400000FFFF2DE9F047040005D079
:1013A00094F85D000025A56218B107E00120BDE8B2
:1013B000F087204684F85C5000F050F8022284F850
:1013C0005D204FF4E0632068016821F04001016076
:1013D000E068984201D9002101E04FF48051B0F556
:1013E000706F02D0984200D0A5624FF00109266BC1
:1013F0002EB9984201D9226301E0C4F83090D4E9B3
:101400000468D4E90102278B46EA0806A36A104360
:1014100007F4007830432668D4E907C240EA0800A0
:1014200040EA0C00CC460427104318433060D4F83F
:101430001880666B606AE26807EA184723683043E1
:101440003A431043084358602068C16921F40061A1
:10145000C161256684F85DC00020A8E770B51A4E0A
:10146000002205680223194903200524B54286B0ED
:1014700011D10D6845F400550D600968CDE90220D1
:1014800001F4005105914FF4E0411148CDE90013FA
:101490006946049413E00F4EB54212D10D6845F42D
:1014A00000150D600968CDE9022001F400110591D5
:1014B0004FF4C0410848CDE9001369460494FFF792
:1014C00069F806B070BD00000034014044380240A5
:1014D0000010024000540140001802402DE9F84F6E
:1014E000044690F85C0000269846012817460D46F1
:1014F0000DD04FF0010A84F85CA0FFF741F9834654
:1015000094F85D00B146012804D002267FE0022055
:10151000BDE8F88F002D79D0002F77D0A268032185
:10152000A563A78784F85D10C4F86090E787C4F8C6
:101530004090A4F84490A4F84690B2F5004FC4F847
:101540005090C4F84C9004D12068016841F4804167
:10155000016020680168490603D4016841F0400138
:101560000160E068B0F5E06F17D83CE02068816862
:10157000890706D535F8021BC160E08F401EE08761
:101580000BE0B8F1000F2CD0B8F1FF3F05D0FFF70A
:10159000F7F8A0EB0B01414523D2E08F0028E5D1FD
:1015A00024E02068816889070FD5E18F012905D9DA
:1015B00035F8021BC160E08F801E04E015F8011BA6
:1015C0000173E08F401EE0870DE0B8F1000F08D0F6
:1015D000B8F1FF3F07D0FFF7D3F8A0EB0B0141456F
:1015E00001D3032613E0E08F0028DAD15A464146A2
:1015F000204600F025FA08B120202066A06818B91E
:101600002068C16880680090206E00B1012684F8CF
:101610005DA0304684F85C907AE704284FF0E02023
:10162000016903D021F004010161704741F0040118
:10163000FAE77047401EB0F1807F10B501D301205A
:1016400010BD4FF0E02460610F21601700F0E6F953
:101650000020A0610721216110BD10B5FFF7E9FF4F
:1016600010BD10B5040003D094F8690010B107E074
:10167000012010BD002084F86800204600F026F804
:10168000242084F869002068016821F001010160CC
:10169000204600F0A1FB0128EBD0606A10B1204683
:1016A00000F016FB2068416821F4904141602068F9
:1016B000816821F02A0181602068016841F0010100
:1016C00001602046BDE8104000F066BB10B5006820
:1016D00086B00C49884213D10B48016841F40031AF
:1016E000016000680221002200F4003005900C2007
:1016F000032307248DE81F0004486946FEF74AFFCC
:1017000006B010BD004400404038024000000240D6
:101710002DE9F84F044690F86A009A4616460D46A1
:10172000202867D1EDB1E6B194F86800012861D0B6
:101730000027012184F868102220E76684F86A00F7
:101740004C34FFF71DF8814654F8440CA6814FF441
:101750008058E681FF214C3C404508D1206918B1F2
:101760000EE00120BDE8F88F40F2FF100EE04FF0D0
:101770007F0218B1B0F1805F05D009E0206950B94F
:10178000A4F85C1004E0206928B13F20A4F85C00B4
:10179000B4F85C601CE0A4F85C20F9E7B4F85A00E7
:1017A000401EA4F85A0000224B4620212046CDF8C6
:1017B00000A000F03DFC08B10320D3E7A06840453D
:1017C00001D1206978B12068406A304005F8010BEA
:1017D000B4F85A000028E1D1202084F86A000020E3
:1017E00084F86870BEE721682846AD1C496A31401C
:1017F0000180EDE70220B5E7FEE700002DE9F04F9C
:101800004A4887B0016841F010010160016801F0A9
:1018100010010591016841F004010160016801F0C7
:1018200004010591016841F001010160016801F0C6
:1018300001010591016841F002010160016801F0B8
:1018400002010591016841F008010160016801F0A1
:1018500008010591016841F040010160006840F60F
:101860004304DFF8CCB0002200F040002146059090
:101870005846FEF77FFF48F2E0762E4800223146B8
:10188000FEF778FF4FF47F672B4800223946FEF7BA
:1018900071FF4FF41F48294800224146FEF76AFFB6
:1018A0004FF4C069264800224946FEF763FF4FF413
:1018B000007A244800225146FEF75CFF0125694664
:1018C0005846CDE90045002402940394FEF762FED9
:1018D00000966946CDE9015416480394FEF75AFE76
:1018E00000976946CDE9015413480394FEF752FE70
:1018F000CDF800806946CDE9015410480394FEF705
:1019000049FECDF800906946CDE901540C48039496
:10191000FEF740FECDF800A06946CDE90154094824
:101920000394FEF737FE07B0BDE8F08F3038024071
:101930000010024000040240000C02400018024067
:1019400000080240000002402DE9F04110484FF429
:10195000E0660E4D00214FF482770122056000F110
:10196000100847605302C0E902160824802588E861
:101970003E0007264162C0E90A1601634163FFF792
:101980000BFD002800D0FEE7BDE8F08100340140E7
:10199000440000202DE9F04110484FF4706500210B
:1019A0000D4F012200F11008C0E90215530208246E
:1019B00088E81E000725016241624FF48276C0E983
:1019C0000A1501634163C0E90076FFF7E5FC0028D2
:1019D00000D0FEE7BDE8F08100540140A8000020DF
:1019E0000C48002110B50A4C0C224FF41653046029
:1019F000C0E90131C160C0E904128161C1610162C5
:101A00004162FFF72EFE002800D0FEE710BD000067
:101A1000004400400C010020FEE770470907002841
:101A20004FEA116106DA00F00F0000F1E02080F8C3
:101A3000141D704700F1E02080F8001470477047D3
:101A4000F8B515460E4604460B464FF4C0510092B9
:101A5000002200F019F888B9002233468021204680
:101A6000009500F061F848B9002233464FF4C06198
:101A70002046009500F008F8002804D0206E40F0C1
:101A8000200020660320F8BD2DE9F8434FF4C0681C
:101A90001D4617460E46DDF8209004463DE04645BB
:101AA00005D127B9007B8DF800009DF80000681C67
:101AB00033D02DB1FEF764FEA0EB0900A8422CD371
:101AC0002068416821F0E00141606068B0F5827FE4
:101AD0000BD1A068B0F5004F02D0B0F5806F04D1F3
:101AE0002068016821F040010160A06AB0F5005F44
:101AF0000AD120684DF6FF7201681140016020682C
:101B0000016841F400510160012184F85D1000205A
:101B100084F85C000320BDE8F883206881683140C8
:101B2000B942BCD10020F6E72DE9F0411D4616462A
:101B30000F460446DDF8188035E0681C33D02DB11F
:101B4000FEF71EFEA0EB0800A8422CD320684168D7
:101B500021F0E00141606068B0F5827F0BD1A068A0
:101B6000B0F5004F02D0B0F5806F04D12068016855
:101B700021F040010160A06AB0F5005F0AD1206841
:101B80004DF6FF720168114001602068016841F460
:101B900000510160012184F85D10002084F85C0090
:101BA0000320BDE8F081206880683840B042C4D18D
:101BB0000020F6E7704710B5FEF7E8FDBDE81040DD
:101BC000FFF74BBD2B4830B5B7B0016841F08051ED
:101BD0000160006800F0805036902748016841F4A9
:101BE00040410160006800250DF1B00C02242494EE
:101BF0000822D823CDE92A4500F440403690102130
:101C00008CE81C0001202F94CDE9270124A8FFF7C0
:101C100025FA00B1FEE7FEF761FE00B1FEE74FF4E2
:101C200080524FF4A0510F20CDE9341231AA072180
:101C300082E8310031A8FFF725F900B1FEE78020E6
:101C4000129500906846FEF77FFE00B1FEE7FFF7B1
:101C5000AFF94FF47A71B0FBF1F0FFF7EBFC042021
:101C6000FFF7DBFC0022501E1146FEF705FE37B0E1
:101C700030BD00004038024000700040104A30B5CE
:101C80001048146800210F4B44F4700414600833AA
:101C900005680D4A0D4C45F00105056019600368A3
:101CA000051D1340074A03600C322C600568E305EC
:101CB000034C25F480250560803C1160236030BD15
:101CC00088ED00E000380240FFFFF6FE10300024EF
:101CD00090F82410C90706D00168836A4A6822F484
:101CE00000321A434A6090F82410890706D501682B
:101CF000C36A4A6822F480321A434A6090F824107A
:101D0000490706D50168036B4A6822F480221A430A
:101D10004A6090F82410090706D50168436B4A68A9
:101D200022F400421A434A6090F82410C90606D5EE
:101D30000168836B8A6822F480521A438A6090F8A3
:101D40002410890606D50168C36B8A6822F4005204
:101D50001A438A6090F82410490611D50168036C73
:101D60004A6822F480121A434A60016CB1F5801F60
:101D700006D10168436C4A6822F4C0021A434A60E3
:101D800090F82410090606D50168826C486820F492
:101D9000002010434860704738B500250446C566EA
:101DA000FEF7EEFC03462068006800070BD56FF0D5
:101DB0007E400090002220464FF4001100F038F9D8
:101DC00008B1032038BD202084F8690084F86850E9
:101DD00084F86A00002038BD2DE9F0470446806889
:101DE000874B884F2668D4E90415E2690843D6F882
:101DF00000C0102115430022284315460CEA030CAD
:101E0000814B4CEA000CC6F800C04FF40049206832
:101E1000D4F80CC0466826F4405646EA0C064660E4
:101E20002668D4F82080A069D6F808C040EA0800E7
:101E30002CF4306C4CEA000CC6F808C02068B8429C
:101E40000AD11B6813F0030352D0012B7AD0022B66
:101E500076D0032B79D177E06C4EB0420AD11B6863
:101E600013F00C036AD0042B6CD0082B68D00C2B19
:101E70006BD169E0664EB0420AD11B6813F03003A3
:101E80005CD0102B5ED0202B5AD0302B5DD15BE084
:101E9000604EB0420AD11B6813F0C0034ED0402BF5
:101EA00050D0802B4CD0C02B4FD14DE05A4EB04279
:101EB0000DD11B6813F4407340D0B3F5807F41D03F
:101EC000B3F5007F3CD0B3F5407F3ED13CE0534EAC
:101ED000B0420FD11B6813F4406309D0B3F5806F93
:101EE00030D0B3F5006F2BD0B3F5406F2DD12BE080
:101EF00001212AE04A4EB0420DD11B6813F4405331
:101F00001CD0B3F5805F1DD0B3F5005F18D0B3F5DA
:101F1000405F1AD118E0434EB04216D11B6813F44B
:101F200040430BD0B3F5804F0CD04B4508D0B3F5F0
:101F3000404F0AD108E005E002E0FFE7002104E09D
:101F4000022102E0042100E00821E6694E452AD181
:101F500009291FD2DFE801F00508141E171E1E1EF6
:101F60001A00FFF72BF801E0FFF738F80146D4F824
:101F70000400490001EB5001B1FBF0F082B20AE02D
:101F800029496068F6E7FFF739F8EFE760684FF432
:101F90008031EFE70125216822F00F00C2F34202F1
:101FA0001043C86028E0092925D2DFE801F00508C0
:101FB0000B24102424241C00FFF700F809E0FFF78D
:101FC0000DF806E06168194A02EB51020EE0FFF7D6
:101FD00015F80146D4E9002001EB5001B1FBF0F007
:101FE00080B2D06008E0616809EB5102B2FBF1F108
:101FF00089B2C16000E001252846BDE8F0870000F5
:10200000F369FFEF001001409038024000440040A7
:1020100000480040004C00400050004000140140C7
:1020200000780040007C00400048E8010024F400F3
:102030002DE9F041984617460E460446069D1DE0E0
:10204000681C1BD02DB1FEF79BFBA0EB0800A8423B
:1020500014D32168202000220B6823F4D0730B6076
:1020600021688B6823F001038B6084F8690084F891
:102070006A00032084F86820BDE8F0812068C06908
:1020800036EA000004D00020B842D9D00020F3E79F
:102090000120F9E7FEE7000010B52DED020B84B03A
:1020A0009DED040B51EC100BFEF712F941EC100BF7
:1020B0009DED041B05989FED1A2B31EE401B9FED03
:1020C0001A3B9FED1B4B10F0004F0AD0B4EEC41B1F
:1020D000F1EE10FA0AD9B4EEC31BF1EE10FA0FDDDF
:1020E0000CE0B4EEC41BF1EE10FA02D230EE420B5B
:1020F00006E0B4EEC31BF1EE10FA01DB30EE020B8A
:102100008DED020B9DED040B8DED000B10EE900A92
:10211000039961F31E0003909DED020B06B010BD04
:10212000000000000000F03F000000000000E03F61
:10213000000000000000E0BF02E008C8121F08C154
:10214000002AFAD170477047002001E001C1121F38
:10215000002AFBD1704700002DED0A8B82B0FEF7FC
:102160001DFBFFF72FFDFFF749FBFFF713FCFFF700
:10217000EBFBFFF735FCFF49FD4808600846FEF71A
:102180007DF900B1FEE70020009001900246F94879
:102190006946FEF752F900B1FEE7F74EB5EE000BC7
:1021A0009FEDF68B96ED021A0021B7EEC11A21EED3
:1021B000000B20EE080BBCEEC00B10EE100AC0B2F4
:1021C000F061EC48FEF79CF9EA480822F369002127
:1021D000FEF788F9DFF8AC939FEDEBAB9FEDECBB1E
:1021E0009FEDEDCBEF4C4FF48078ED4DDFF8B8A3C9
:1021F000DFF8B8B36715B1EE049B00BFE8490A22C7
:102200004FF47A73A1F17000FFF782FA2878422820
:102210007ED0A87831287CD03028EFD100225846D3
:102220000221FEF7A7FA0120FEF7A2F90022584684
:102230000121FEF79FFA0120FEF79AF9DC480022FF
:102240003946FEF797FA0120FEF792F9D8480022A6
:102250004146FEF78FFA0120FEF78AF9D4480022A2
:102260008021FEF787FA0120FEF782F9D04800228C
:102270004021FEF77FFA0120FEF77AF9CC480022D0
:102280002021FEF777FA0120FEF772F9002220469E
:102290004FF40041FEF76EFA0120FEF769F90022C3
:1022A00020464FF48051FEF765FA0120FEF760F9F1
:1022B000002220464FF40061FEF75CFA0120FEF791
:1022C00057F9002220464FF48061FEF753FA0120AF
:1022D000FEF74EF9002239462046FEF74BFA012060
:1022E000FEF746F9002250468021FEF743FA01200E
:1022F000FEF73EF9002250464021FEF73BFA01204E
:10230000FEF736F9002250462021FEF733FA01E0AD
:102310000CE0B1E00120FEF72BF90022504610211D
:10232000FEF728FA0120FEF723F967E728796A7992
:102330003038AB7900EBC00C02EB82020CEB0010E2
:1023400009EB420103EB80000844C0B2F07000EEDC
:10235000100AB8EE400B20EE0A0B80EE0B1BB7EE16
:10236000C11B86ED031AB7EEC10A20EE0C0B80EEFE
:10237000092BF7EEC21BC6ED041AB7EEE10AFFF710
:102380008BFEBDEEC00B10EE100A7061B0706420C1
:10239000FEF7EEF8002241462046FEF7EBF93078D2
:1023A0006423B1781022000340EA0110B080724922
:1023B0007048091D7830FFF791F80120FEF7D8F832
:1023C000012241462046FEF7D5F90022414620462B
:1023D000FEF7D0F970786423B1781022000340EA48
:1023E0000110F08064496348891D7830FFF776F862
:1023F0000120FEF7BDF8012241462046FEF7BAF95A
:102400006C483946FEF7B2F90A20FEF7B1F86A487F
:102410003946FEF7ABF90A20FEF7AAF8687864217E
:102420003038B06110FB01F0A97801EB810100EBBD
:102430004100A0F5F07000EE100A9FED601A4D48C3
:102440000021F8EEC00A80EE810AB0EE081B86ED8E
:10245000020AB7EEC03A83EE012B22EE081BFCEE17
:10246000C10BC6ED070AFEF74BF842480822F36994
:102470000021FEF737F8C1E6E8782A7930386B7921
:1024800000EBC00C02EB82020CEB001009EB4201E6
:1024900003EB80000844C0B2F07000EE100AB8EE02
:1024A000400B20EE0A0B80EE0B1BB7EEC10B86ED46
:1024B000030AB7EEC01A21EE0C0B80EE091BB7EE33
:1024C000C11B86ED041AB7EEC10AFFF7E5FDBDEEAC
:1024D000C00B10EE100A7061B0706420FEF748F86F
:1024E000002241462046FEF745F931786423B27850
:1024F000090341EA0210B0801F4910221D48091D3E
:102500007830FEF7EBFF0120FEF732F8012241465A
:102510002046FEF72FF9002241462046FEF72AF911
:1025200071786423B278090341EA0210F0801249FD
:1025300010221048891D7830FEF7D0FF0120FEF7E9
:1025400017F8012241462046FEF714F9194839468A
:10255000FEF70CF90A20FEF70BF817483946FEF78C
:1025600005F90A20FEF704F8287830287ED027E005
:102570000074004030000020000000200000000037
:1025800000E06F40F0FDFFFF33333333333340401F
:102590000000000000408F4000000000000070407C
:1025A0007C01002000180240000C02400010024094
:1025B00000040240000002400008024000007A448B
:1025C00031287FF4B2AE002258460221FEF7D2F83D
:1025D0000120FDF7CDFF002258460121FEF7CAF881
:1025E0000120FDF7C5FFFF4800223946FEF7C2F87B
:1025F0000120FDF7BDFFFB4800224146FEF7BAF877
:102600000120FDF7B5FFF74800228021FEF7B2F860
:102610000120FDF7ADFFF34800224021FEF7AAF8A4
:102620000120FDF7A5FFEF4800222021FEF7A2F8C8
:102630000120FDF79DFF002220464FF40041FEF7E8
:1026400099F80120FDF794FF002220464FF48051B5
:10265000FEF790F80120FDF78BFF687830287CD0DA
:1026600031287BD032287AD0332800E057E077D069
:10267000342876D0352875D03628A2D100222046BD
:102680004FF40061FEF776F80120FDF771FF00229C
:1026900020464FF48061FEF76DF80120FDF768FFDA
:1026A000002239462046FEF765F80120FDF760FF5D
:1026B000002250468021FEF75DF80120FDF758FF0B
:1026C000002250464021FEF755F80120FDF750FF4B
:1026D000002250462021FEF74DF80120FDF748FF6B
:1026E000012250461021FEF745F80120FDF740FF7A
:1026F00001225046D102FEF73DF8012250464FF428
:102700008061FEF737F8012239465046FEF732F86D
:10271000012241465046FEF72DF801225DE10022DC
:1027200020464FF40061FEF725F80120FDF720FF59
:10273000002220464FF48061FEF71CF80120FDF7CF
:1027400017FF002239462046FEF714F80120FDF756
:102750000FFF00225046802105E044E391E3D0E3DF
:10276000FDE3FDE3FDE3FEF705F80120FDF700FFC3
:10277000002250464021FDF7FDFF0120FDF7F8FE45
:10278000002250462021FDF7F5FF0120FDF7F0FE65
:10279000002250461021FDF7EDFF0120FDF7E8FE75
:1027A0006878312860D032287DD033287CD0342816
:1027B0007BD035287AD0362879D0372878D0382879
:1027C00077D039287FF4B1AD002258460221FDF7B9
:1027D000D1FF0120FDF7CCFE002258460121FDF774
:1027E000C9FF0120FDF7C4FE7E4800223946FDF7EF
:1027F000C1FF0120FDF7BCFE7A4800224146FDF7EB
:10280000B9FF0120FDF7B4FE764800228021FDF7D4
:10281000B1FF0120FDF7ACFE724800224021FDF718
:10282000A9FF0120FDF7A4FE6E4800222021FDF73C
:10283000A1FF0120FDF79CFE002220464FF400413D
:10284000FDF798FF0120FDF793FE012220461103BA
:10285000FDF790FF0120FDF78BFE01225046D102CB
:10286000FDF788FF002200E3012258460221FDF710
:1028700081FF0120FDF77CFE002258460121FDF773
:1028800079FF0120FDF774FE564800223946FDF716
:1028900071FF0120FDF76CFE524800224146FDF712
:1028A00069FF012006E038E0A1E0F1E047E197E1AF
:1028B000EDE13DE2FDF75CFE4A4800228021FDF794
:1028C00059FF0120FDF754FE464800224021FDF744
:1028D00051FF0120FDF74CFE424800222021FDF768
:1028E00049FF0120FDF744FE002220464FF400413D
:1028F000FDF740FF0120FDF73BFE002220464FF48C
:102900008051FDF737FF0120FDF732FE01225046CE
:10291000D102FDF72FFF01224FE00022584602218D
:10292000FDF728FF0120FDF723FE0122584611463E
:10293000FDF720FF0120FDF71BFE2A480022394643
:10294000FDF718FF0120FDF713FE2648002241463F
:10295000FDF710FF0120FDF70BFE22480022802129
:10296000FDF708FF0120FDF703FE1E48002240216D
:10297000FDF700FF0120FDF7FBFD1A480022202192
:10298000FDF7F8FE0120FDF7F3FD002220464FF48D
:102990000041FDF7EFFE0120FDF7EAFD0022204691
:1029A0004FF48051FDF7E6FE0120FDF7E1FD012225
:1029B0005046D102FDF7DEFE002250464FF4806102
:1029C000FDF7D8FE012239465046FDF7D3FE01221D
:1029D00041465046FDF7CEFE002202484FF400412A
:1029E00002E0000000040240FDF7C4FE06E40022FD
:1029F00058460221FDF7BEFE0120FDF7B9FD002279
:102A000058460121FDF7B6FE0120FDF7B1FDFF4854
:102A100001223946FDF7AEFE0120FDF7A9FDFB4876
:102A200000224146FDF7A6FE0120FDF7A1FDF74873
:102A300000228021FDF79EFE0120FDF799FDF3485D
:102A400000224021FDF796FE0120FDF791FDEF48A1
:102A500000222021FDF78EFE0120FDF789FD0022D6
:102A600020464FF40041FDF785FE0120FDF780FD73
:102A7000002220464FF48051FDF77CFE0120FDF737
:102A800077FD01225046D102FDF774FE01224FE08E
:102A9000002258460221FDF76DFE0120FDF768FD7A
:102AA000002258460121FDF765FE0120FDF760FD7B
:102AB000D64800223946FDF75DFE0120FDF758FD9E
:102AC000D24801224146FDF755FE0120FDF750FD99
:102AD000CE4800228021FDF74DFE0120FDF748FD84
:102AE000CA4800224021FDF745FE0120FDF740FDC8
:102AF000C64800222021FDF73DFE0120FDF738FDEC
:102B0000002220464FF40041FDF734FE0120FDF77E
:102B10002FFD002220464FF48051FDF72BFE0120AF
:102B2000FDF726FD01225046D102FDF723FE0022CB
:102B300050464FF48061FDF71DFE002243E700225E
:102B400058460221FDF716FE0120FDF711FD002277
:102B500058460121FDF70EFE0120FDF709FDAB48A7
:102B600000223946FDF706FE0120FDF701FDA748CA
:102B700000224146FDF7FEFD0120FDF7F9FCA348C8
:102B800001228021FDF7F6FD0120FDF7F1FC9F48B1
:102B900000224021FDF7EEFD0120FDF7E9FC9B48F6
:102BA00000222021FDF7E6FD0120FDF7E1FC0022D7
:102BB00020464FF40041FDF7DDFD0120FDF7D8FC74
:102BC000002220464FF48051FDF7D4FD0120FDF78F
:102BD000CFFC01225046D102FDF7CCFD01224FE08F
:102BE000002258460221FDF7C5FD0120FDF7C0FC7B
:102BF000002258460121FDF7BDFD0120FDF7B8FC7C
:102C0000824800223946FDF7B5FD0120FDF7B0FCF2
:102C10007E4800224146FDF7ADFD0120FDF7A8FCEE
:102C20007A4800228021FDF7A5FD0120FDF7A0FCD8
:102C3000764801224021FDF79DFD0120FDF798FC1B
:102C4000724800222021FDF795FD0120FDF790FC40
:102C5000002220464FF40041FDF78CFD0120FDF7D6
:102C600087FC002220464FF48051FDF783FD0120B0
:102C7000FDF77EFC01225046D102FDF77BFD0022CC
:102C800050464FF48061FDF775FD0122A5E000225A
:102C900058460221FDF76EFD0120FDF769FC002278
:102CA00058460121FDF766FD0120FDF761FC5748FC
:102CB00000223946FDF75EFD0120FDF759FC53481F
:102CC00000224146FDF756FD0120FDF751FC4F481B
:102CD00000228021FDF74EFD0120FDF749FC4B4805
:102CE00000224021FDF746FD0120FDF741FC474849
:102CF00001222021FDF73EFD0120FDF739FC0022D5
:102D000020464FF40041FDF735FD0120FDF730FC72
:102D1000002220464FF48051FDF72CFD0120FDF7E5
:102D200027FC01225046D102FDF724FD01224EE08E
:102D3000002258460221FDF71DFD0120FDF718FC79
:102D4000002258460121FDF715FD0120FDF710FC7A
:102D50002E4800223946FDF70DFD0120FDF708FC45
:102D60002A4800224146FDF705FD0120FDF700FC41
:102D7000264800228021FDF7FDFC0120FDF7F8FB2D
:102D8000224800224021FDF7F5FC0120FDF7F0FB71
:102D90001E4800222021FDF7EDFC0120FDF7E8FB95
:102DA00001222046D103FDF7E5FC0120FDF7E0FB01
:102DB000002220464FF48051FDF7DCFC0120FDF796
:102DC000D7FB01225046D102FDF7D4FC0022504629
:102DD0004FF48061FDF7CEFC002239465046FDF7E6
:102DE000C9FC0022F4E501222046D102FDF7C2FC15
:102DF0000120FDF7BDFB002220464FF48061FDF766
:102E0000B9FC0120FDF7B4FB002201E00004024000
:102E100039462046FDF7AEFC0120FDF7A9FB002254
:102E200050468021FDF7A6FC0120FDF7A1FB002202
:102E300050464021FDF79EFC0120FDF799FB002242
:102E400050462021FDF796FC0120FDF791FB002262
:102E500050461021FDF78EFC0120FDF789FB012271
:102E60005046D102FDF786FC012250464FF48061A6
:102E7000FDF780FC002239465046FDF77BFC00221E
:102E800047E4002220464FF40061FDF773FC012067
:102E9000FDF76EFB012220469102FDF76BFC01203D
:102EA000FDF766FB002239462046FDF763FC012052
:102EB000FDF75EFB002250468021FDF75BFC012000
:102EC000FDF756FB002250464021FDF753FC012040
:102ED000FDF74EFB002250462021FDF74BFC012060
:102EE000FDF746FB002250461021FDF743FC012070
:102EF000FDF73EFB01225046D102FDF73BFC0022CC
:102F000043E0002220464FF40061FDF733FC01202E
:102F1000FDF72EFB002220464FF48061FDF72AFCCE
:102F20000120FDF725FB012239462046FDF722FC52
:102F30000120FDF71DFB002250468021FDF71AFC01
:102F40000120FDF715FB002250464021FDF712FC41
:102F50000120FDF70DFB00225046202102E01BE07E
:102F60005BE0A2E0FDF706FC0120FDF701FB00227B
:102F700050461021FDF7FEFB0120FDF7F9FA012272
:102F80005046D102FDF7F6FB012250464FF4806116
:102F9000FDF7F0FB01226EE7002220464FF40061AE
:102FA000FDF7E8FB0120FDF7E3FA002220464FF48D
:102FB0008061FDF7DFFB0120FDF7DAFA00223946D8
:102FC0002046FDF7D7FB0120FDF7D2FA012250463B
:102FD0008021FDF7CFFB0120FDF7CAFA0022504601
:102FE0004021FDF7C7FB0120FDF7C2FA0022504641
:102FF0002021FDF7BFFB0120FDF7BAFA0022504661
:103000001021FDF7B7FB0120FDF7B2FA012250466F
:10301000D102FDF7AFFB00223FE0002220464FF433
:103020000061FDF7A7FB0120FDF7A2FA0022204670
:103030004FF48061FDF79EFB0120FDF799FA002215
:1030400039462046FDF796FB0120FDF791FA002254
:1030500050468021FDF78EFB0120FDF789FA012201
:1030600050464021FDF786FB0120FDF781FA002242
:1030700050462021FDF77EFB0120FDF779FA002262
:1030800050461021FDF776FB0120FDF771FA012271
:103090005046D102FDF76EFB012250464FF480618D
:1030A000FDF768FB0022FFF72FBB002220464FF4FC
:1030B0000061FDF75FFB0120FDF75AFA0022204670
:1030C0004FF48061FDF756FB0120FDF751FA002215
:1030D00039462046FDF74EFB0120FDF749FA002254
:1030E00050468021FDF746FB0120FDF741FA002202
:1030F00050464021FDF73EFB0120FDF739FA012241
:1031000050462021FDF736FB0120FDF731FA002261
:1031100050461021FDF72EFB0120FDF729FA012270
:103120005046D102FDF726FB0022FFF7E7BA000068
:103130000000000000000102030406070809000067
:1031400000000102030400006831000800000020B4
:1031500030000000382100089831000830000020BD
:10316000580500004821000801050000000000008B
:10317000000000000000000000000000000000004F
:10318000000000000000000001000000100000002E
:08319000000000000024F4001F
:04000005080001F9F5
:00000001FF
