:020000040800F2
:10000000800500200D0200084F1A00081118000892
:100010004D1A000885050008C920000800000000EE
:10002000000000000000000000000000E91B0008C4
:100030008705000800000000731A0008EB1B000889
:1000400027020008270200082702000827020008EC
:1000500027020008270200082702000827020008DC
:1000600027020008270200082702000827020008CC
:1000700027020008270200082702000827020008BC
:1000800027020008270200082702000827020008AC
:10009000270200082702000827020008270200089C
:1000A000270200082702000827020008270200088C
:1000B000270200082702000827020008270200087C
:1000C000270200082702000827020008270200086C
:1000D000270200082702000827020008270200085C
:1000E000270200082702000827020008270200084C
:1000F000270200082702000827020008270200083C
:10010000270200082702000827020008270200082B
:10011000270200082702000827020008270200081B
:10012000270200082702000827020008270200080B
:1001300027020008270200082702000827020008FB
:1001400027020008270200082702000827020008EB
:1001500027020008270200082702000827020008DB
:1001600027020008270200082702000827020008CB
:1001700027020008270200082702000800000000EC
:1001800027020008270200082702000827020008AB
:10019000270200082702000827020008270200089B
:1001A000270200082702000827020008270200088B
:1001B000270200082702000827020008270200087B
:1001C000270200082702000800000000270200089C
:1001D000270200082702000827020008270200085B
:1001E000270200082702000827020008270200084B
:1001F0002702000827020008DFF80CD000F0F2F810
:1002000000480047992100088005002006488047E3
:1002100006480047FEE7FEE7FEE7FEE7FEE7FEE7EB
:10022000FEE7FEE7FEE7FEE7B11C0008F901000863
:100230002DE9F05F0546002092469B46884606461B
:10024000814640241BE0284641464746224600F0AE
:100250003CF853465A46C01A914110D311461846ED
:10026000224600F023F82D1A67EB01084F4622467C
:100270000120002100F01AF817EB00094E41201E62
:10028000A4F10104DFDC484631462A464346BDE876
:10029000F09F70B5064601F019FF046805460A2272
:1002A0000021304600F021F82C6070BD202A04DBCC
:1002B000203A00FA02F1002070479140C2F1200379
:1002C00020FA03F3194390407047202A04DB203AB8
:1002D00021FA02F00021704721FA02F3D040C2F166
:1002E000200291400843194670472DE9F047914696
:1002F0000F4680460446002614F8015B2DB100F03D
:1003000083F80068405DC007F6D12B2D02D02D2D5B
:1003100018D0641E4A463946204600F079F827B1C5
:100320003968A14201D1C7F8008071054FF002047D
:100330000BD54042002803DD01F0C8FE0460A00791
:10034000BDE8F08746F48066E4E70028F8DA01F0BB
:10035000BDFE04606FF00040F2E700002DE9F041BF
:10036000054621F000400C46284309D0C4F30A504A
:1003700040F23341884205DD28462146BDE8F08140
:100380002846FBE740F2FE31884210DC0CDB4FEAE6
:10039000043040EA155050EA053105D0104804F009
:1003A000004101430020E9E700200146E6E7A0F212
:1003B00033404642C6F1400228462146FFF776FF09
:1003C00007468846284621463246FFF77EFF4346C9
:1003D0003A4600F06CF83246BDE8F041FFF766BFE0
:1003E0000000F03F064C074D06E0E06840F00103D6
:1003F00094E8070098471034AC42F6D3FFF700FFAB
:10040000E42B0008042C000800487047E02B00088B
:100410002DE9F05F82460078002715468B460AF1E9
:100420000104B946302801D09DB113E014F8010B46
:100430000127782803D0582801D045B10AE00DB132
:10044000102D07D10027102514F8010B02E0082514
:1004500000E00A250026B0460EE005FB080005FB7B
:1004600006F1012701EB10461FFA80F8B6F5803F30
:1004700000D3B94614F8010B294600F075F800289E
:10048000EBDABBF1000F05D00FB1641E00E054465B
:10049000CBF80040B9F1000F06D001F017FE0221A1
:1004A0000160C81EBDE8F09F48EA0640FAE710B5B3
:1004B000141E73F1000408DA401C41F10001921887
:1004C0005B411A4301D120F0010010BD2DE9F04D30
:1004D00092469B4611B1B1FA81F202E0B0FA80F285
:1004E00020329046FFF7E2FE04460F4640EA0A003B
:1004F00041EA0B0153465A46084313D0114653EACA
:10050000010019D0C8F140025046FFF7DEFE054653
:100510000E46504659464246FFF7C8FE084305D0EE
:10052000012004E020463946BDE8F08D0020054357
:1005300046EAE0762C4337430A986305E40AA0EBC9
:1005400008000022FD0A44EA47540A3002D5002080
:100550000146E9E7010510196941DDE9084500197F
:100560006941BDE8F04DA2E73A2800D2303820F0CA
:100570002002412A01D3A2F13700884201D34FF073
:10058000FF307047FEE7704770B5044600F004F98D
:100590000546601C02D004480078044400F0FCF8D2
:1005A000401BA042FAD370BD240000202DE9F84F73
:1005B000DFF89CE100224FF001084FF0030B4FF0F1
:1005C0000F0A00BF0B6808FA02F42340A34271D15E
:1005D0004D68022D01D0122D0FD1D5080E69570795
:1005E00000EB8505A9462D6AFF0E0AFA07FCBE40FE
:1005F00025EA0C052E43C9F820600F7955000668DE
:100600000BFA05FC07F0030726EA0C06AF40374358
:1006100007604E68012E05D0022E03D0112E01D0A6
:10062000122E0ED18668CF6826EA0C06AF403743FB
:10063000876046680F79A643C7F300179740374392
:100640004760C4688E6824EA0C04AE402643C66046
:100650004C68E40075D53F4C256845F4804525601D
:10066000246822F00306950704F4804400943A4C71
:100670002D0F2644D6F80848DFF8E0C00AFA05F73F
:10068000604524EA070401D100272EE0344FB84228
:1006900001D1012729E0334FB84201D1022724E0DC
:1006A000314FB84201D103271FE0304FB84202D189
:1006B00004271AE045E02E4FB84201D1052714E087
:1006C0002C4FB84201D106270FE02B4FB84201D181
:1006D00007270AE0294FB84201D1082705E0284F33
:1006E000B84201D1092700E00A27AF4027437546E9
:1006F000C6F808784E68DEF80040F60324EA0304E2
:1007000000D51C43124E2C60361D4D683468AD0375
:1007100024EA030400D51C430D4F346008374D68AC
:100720003C68ED0224EA030400D51C43084D3C60FC
:100730000C354E682C68B60224EA030400D51C432D
:100740002C60521C102AFFF43DAFBDE8F88F00006A
:10075000003C0140443802400030014000000240AB
:100760000004024000080240000C02400010024059
:100770000014024000180240001C02400020024009
:100780000024024042694A40426170470AB18161D7
:1007900070470904FBE700000148806870470000CB
:1007A000240000200248816802781144816070476B
:1007B00024000020032010B500F08AF8002000F08B
:1007C00005F800F023F8002010BD000070B50D4DB5
:1007D00004464FF47A700C4A29781268B0FBF1F0A5
:1007E000B2FBF0F000F032FF48B9102C07D2002223
:1007F0002146501E00F04CF800206C6070BD0120B6
:1008000070BD000024000020300000201F4808B503
:10081000016841F080510160006800F08050009054
:100820001A48001D016841F480410160006800F42D
:1008300080400090032000F04BF800226FF00B0086
:10084000114600F025F800226FF00A00114600F072
:100850001FF800226FF00900114600F019F800227D
:10086000501F114600F014F80022101F114600F02E
:100870000FF80022901E114600F00AF80022BDE891
:100880000840501E114600F003B8000040380240F6
:100890000E4BF0B41B680D46C3F30223C3F10706E9
:1008A000042E00D90426191D072901D2002300E0D7
:1008B000DB1E012404FA06F19C40491E2940641EF7
:1008C000994014402143F0BC01F0C2B80CED00E0A7
:1008D000064900F0070210B54FF6FF040868044B04
:1008E000204040EA02201843086010BD0CED00E0F3
:1008F0000000FA051848F8B5016841F08051016020
:100900000068164C00F080500090206840F4803061
:100910002060FFF741FF4FF47A76054605E000BFFF
:10092000FFF73AFF401BB0420FD86068C003F7D50D
:10093000206840F400302060FFF72EFF054606E0F7
:10094000FFF72AFF401BB04201D90320F8BD6068C1
:100950008003F5D50020F8BD40380240007000400B
:100960002DE9F84F04460078DFF824944FF0000694
:100970003746C0070ED0D9F8001021F40001C9F89D
:100980000010D9F80010626B1143C9F80010606BB9
:1009900000B90126FE4D2068843500030ED5E16BB9
:1009A000286820F4401008432860E06BB0F5801FF1
:1009B00001D010B102E0012600E0012720684FF4C9
:1009C000800BC0020CD5216C286820F4400008433D
:1009D0002860206C584501D1012601E000B90127AB
:1009E0002068C10100D50126800666D5E848383068
:1009F000016841F0805101600068DFF898A300F0C1
:100A000080500090DAF8001041F48071CAF80010AC
:100A1000FFF7C2FE804605E0FFF7BEFEA0EB080030
:100A200064287DD8DAF80000C005F5D5DFF86083CA
:100A300008F16808D8F8000010F440702AD0218E20
:100A400001F44071814225D0D8F80010D8F8002078
:100A500021F4407142F48032C8F80020D8F8002018
:100A600022F48032C8F80020C8F80010D8F800003E
:100A7000C0070FD0FFF790FE824607E0FFF78CFE1D
:100A8000A0EB0A0141F288308142CAD8D8F80000B0
:100A90008007F3D5206BC0F3012103297ED0D9F85C
:100AA000001021F4F811C9F80010228ED8F80010B7
:100AB000C2F30B021143C8F800102078C00607D516
:100AC000286820F0807028602868A16B084328609F
:100AD0002188AF488830490405D5626E016821F449
:100AE0004031114301602188090405D5A26E0168D7
:100AF00021F44021114301602168C90305D5E26E4C
:100B0000016821F44011114301602168890305D572
:100B1000226F016821F4400111430160217800E057
:100B200034E1490605D5626C016821F003011143E7
:100B300001602178090605D5A26C016821F00C013D
:100B4000114301602188C90505D5E26C016821F0D7
:100B50003001114301602188890505D5226D0168A6
:100B600021F0C001114301602188490505D5626D5E
:100B7000016821F44071114301602188090505D500
:100B8000A26D016821F44061114301602188C9040C
:100B900007D5E26D016821F4405100E05FE01143A8
:100BA00001602188890405D5226E016821F4404145
:100BB000114301602168490205D5A26F016821F047
:100BC00080611143016021684FF0006A890209D5F4
:100BD000E26F016821F0006111430160E16F51454E
:100BE00000D1012721680A0700D50127490305D54F
:100BF000626F016821F040711143016021680902B0
:100C000006D5D4F88020016821F08051114301609D
:100C10002168490106D5D4F88420016821F00051EB
:100C2000114301602068000106D5D4F888102868B7
:100C300020F00070084328602068C00006D5D4F872
:100C40008C10286820F0806008432860DFF8489105
:100C5000012E0ED02068B0F1007F0AD08FE04F4AFD
:100C6000D9F80030104023F4F8120243C9F80020EC
:100C70001BE7D9F800004E4620F08060C9F800005C
:100C8000FFF78AFD804605E0FFF786FDA0EB080030
:100C900064287BD830680001F6D421783C487C3049
:100CA000C90712D0616B81B9237A62680168D0F8F4
:100CB00000C09201C1F3014142EA0142CCF3036159
:100CC00042EA016141EA0371016021680A0303D528
:100CD000E26BB2F5801F04D0C9021AD5216C5945C8
:100CE00017D16368016894F80CC002689B01C1F3D6
:100CF000014143EA0141C2F3027241EA0C6141EA57
:100D0000027101602968626A21F01F01521E1143BD
:100D100029602168C90110D5238A62680168D0F86A
:100D200000C09201C1F3036142EA034242EA016258
:100D3000CCF3027142EA01710160216889010CD58E
:100D40006168228A237B94F808C0890141EA024144
:100D500041EA036141EA0C7101603168B04641F03B
:100D600080613160FFF718FD064604E0FFF714FDCF
:100D7000801B64280AD8D8F800000001F6D5E7B334
:100D8000D9F800004E4620F0805009E07BE00000DA
:100D9000083802400070004000380240FFFCFF0F9E
:100DA000C9F80000FFF7F8FC074604E0FFF7F4FC81
:100DB000C01B642867D83068C0438000F6D521681E
:100DC00035480A0301D5E26B1AB1C9021DD5216C61
:100DD000D9B963690168277E02689B01C1F30141AB
:100DE00043EA0143C2F3027143EA076242EA017136
:100DF000016029686FF0FF0300E04BE0A26A21F474
:100E0000F85103EB0222114329602168890212D5AF
:100E1000E16F51450FD1238C626901680768920127
:100E2000C1F3036142EA034242EA0162C7F302717D
:100E300042EA017101602178090716D561690268EB
:100E4000D0F800C08B01277FC2F30362CCF30141CD
:100E500043EA014141EA026141EA07710160286801
:100E6000E16A20F4403008432860306840F0805048
:100E70003060FFF791FC044608E000BFFFF78CFCF0
:100E8000001B642802D90320BDE8F88F3068C043F6
:100E90008000F3D40020F7E7883802402DE9F047BE
:100EA00005000F4663D0444E306800F00F00B84292
:100EB00009D2306820F00F0038433060306800F00D
:100EC0000F00B84253D128683C4C810712D5400727
:100ED00003D5206840F4E05020602878000703D54F
:100EE000206840F460402060A968206820F0F0008D
:100EF000084320602878C0072AD03049686808393C
:100F0000012810D00968022810D0890700292EDA9C
:100F1000216821F0030101432160FFF73DFC804679
:100F200041F288390DE009688903EFE78901EDE7AF
:100F3000FFF732FCA0EB0801494502D90320BDE8C8
:100F4000F0876868216801F00C01B1EB800FEFD1E8
:100F5000306800F00F00B8420BD9306820F00F0065
:100F600038433060306800F00F00B84201D00120F3
:100F7000E5E72878400705D5E968206820F4E050C7
:100F8000084320602878000706D52869216821F4E5
:100F9000604141EAC000206000F03CF82168084A46
:100FA000C1F30311515CC840064908600020FFF7F7
:100FB0000DFC0020C3E70000003C0240083802405E
:100FC000462B0008300000200148006870470000F0
:100FD000300000200449054809680068044AC1F34C
:100FE0008221515CC8407047083802403000002020
:100FF000562B00080449054809680068044AC1F3F3
:101000004231515CC840704708380240300000202F
:10101000562B0008154910B51548096811F00C0247
:1010200013D04110042A0FD0082A0ED10F4C241FD0
:101030002268236802F03F025B0207D52068C0F3F4
:101040008810A0FB010106E0084610BD2168C1F32D
:101050008811A1FB00010023FFF7EAF82168C1F322
:101060000141491C4900B0FBF1F010BD08380240B5
:101070000024F4002DE9F84F05004FF000076ED072
:101080002878DFF82093A9F1040AC007AAF1040424
:101090004CD0D9F800104846C1F38101012908D08D
:1010A0000068C0F3810002280AD1DAF8000040028B
:1010B00006D52068800339D568680028DFD035E080
:1010C0006868B0F5803F0BD010B1B0F5A02F11D0FB
:1010D000206820F480302060206820F4802002E026
:1010E000206840F480302060686890B1FFF754FBBE
:1010F00006460AE0206840F480202060F0E700BF48
:10110000FFF74AFB801B642872D820688003F7D55C
:101110000CE0FFF741FB064605E000BFFFF73CFB94
:10112000801B6428F0D820688003F7D428788007D3
:1011300042D5D9F80010484611F00C0F08D00068CD
:10114000C0F3810002280BD1DAF80000400207D476
:101150002068800718D5E868012800D114E01EE156
:10116000E8680028206817D040F001002060FFF7F1
:1011700013FB064605E000BFFFF70EFB801B0228AD
:10118000C2D820688007F7D52869216821F0F801C6
:1011900041EAC00020600FE020F001002060FFF76E
:1011A000FBFA064605E000BFFFF7F6FA801B0228AF
:1011B0001ED820688007F7D42878000729D57948F9
:1011C00069696C3000298046016812D041F0010144
:1011D0000160FFF7E1FA064605E000BFFFF7DCFA21
:1011E000801B022804D8D8F800008007F6D510E04C
:1011F00089E021F001010160FFF7CEFA064604E024
:10120000FFF7CAFA801B02287DD8D8F800008007B3
:10121000F6D4287840076BD5DFF8888108F13808C4
:10122000D8F80000C0000BD4D8F8001041F080516D
:10123000C8F80010D8F80000012700F08050009096
:1012400059480168C90512D40168834641F4807188
:101250000160FFF7A1FA064605E000BFFFF79CFA20
:10126000801B64284FD8DBF80000C005F6D54D4E32
:10127000A868683601280AD008B1052811D030685E
:1012800020F001003060306820F0040002E0306897
:1012900040F001003060A868A0B1FFF77DFA8346F6
:1012A0000CE0306840F004003060F0E7FFF774FABB
:1012B000A0EB0B0141F28830814268D8306880078A
:1012C000F4D50EE0FFF768FA834607E0FFF764FA0B
:1012D000A0EB0B0141F28830814258D8306880077A
:1012E000F4D42FB1D8F8001021F08051C8F80010C4
:1012F000A869E0B3D9F80010C1F3810102294ED0EA
:101300000228206800E042E020F08070206003D0D6
:10131000FFF742FA05463DE0FFF73EFA064604E0D5
:10132000FFF73AFA801B022831D820688001F7D4F1
:10133000D5E90921DFF874C0D5E9070695F8303002
:101340004F0895F82C1030430CEB074545EA821204
:10135000104340EA016040EA0370CAF800002068C8
:1013600040F080702060FFF717FA054605E014E0B2
:10137000FFF712FA401B022809D820688001F7D530
:101380000BE000BFFFF708FA401B022802D9032038
:10139000BDE8F88F20688001F4D40020F8E7012030
:1013A000F6E7000008380240007000400000FFFF30
:1013B0002DE9F047040005D094F85D000025A562F2
:1013C00018B107E00120BDE8F087204684F85C50A2
:1013D00000F050F8022284F85D204FF4E0632068AA
:1013E000016821F040010160E068984201D90021C4
:1013F00001E04FF48051B0F5706F02D0984200D0F8
:10140000A5624FF00109266B2EB9984201D92263DB
:1014100001E0C4F83090D4E90468D4E90102278BD4
:1014200046EA0806A36A104307F4007830432668AA
:10143000D4E907C240EA080040EA0C00CC46042781
:10144000104318433060D4F81880666B606AE26815
:1014500007EA1847236830433A431043084358606B
:101460002068C16921F40061C161256684F85DC00E
:101470000020A8E770B51A4E00220568022319491A
:1014800003200524B54286B011D10D6845F40055FE
:101490000D600968CDE9022001F4005105914FF477
:1014A000E0411148CDE900136946049413E00F4E62
:1014B000B54212D10D6845F400150D600968CDE9FB
:1014C000022001F4001105914FF4C0410848CDE914
:1014D000001369460494FFF769F806B070BD000078
:1014E00000340140443802400010024000540140E2
:1014F000001802402DE9F84F044690F85C000026E1
:101500009846012817460D460DD04FF0010A84F881
:101510005CA0FFF741F9834694F85D00B1460128CD
:1015200004D002267FE00220BDE8F88F002D79D09C
:10153000002F77D0A2680321A563A78784F85D10E8
:10154000C4F86090E787C4F84090A4F84490A4F8E9
:101550004690B2F5004FC4F85090C4F84C9004D1B6
:101560002068016841F480410160206801684906F3
:1015700003D4016841F040010160E068B0F5E06F1C
:1015800017D83CE020688168890706D535F8021B2A
:10159000C160E08F401EE0870BE0B8F1000F2CD057
:1015A000B8F1FF3F05D0FFF7F7F8A0EB0B0141457D
:1015B00023D2E08F0028E5D124E0206881688907E4
:1015C0000FD5E18F012905D935F8021BC160E08FE5
:1015D000801E04E015F8011B0173E08F401EE087B8
:1015E0000DE0B8F1000F08D0B8F1FF3F07D0FFF7CA
:1015F000D3F8A0EB0B01414501D3032613E0E08FA4
:101600000028DAD15A464146204600F033FA08B1A4
:1016100020202066A06818B92068C1688068009002
:10162000206E00B1012684F85DA0304684F85C90FD
:101630007AE704284FF0E020016903D021F004018B
:101640000161704741F00401FAE77047401EB0F1B4
:10165000807F10B501D3012010BD4FF0E024606100
:101660000F21601700F0F4F90020A061072121612B
:1016700010BD10B5FFF7E9FF10BD10B5040003D091
:1016800094F8690010B107E0012010BD002084F833
:101690006800204600F026F8242084F869002068BD
:1016A000016821F001010160204600F0AFFB012834
:1016B000EBD0606A10B1204600F024FB206841683E
:1016C00021F4904141602068816821F02A01816005
:1016D0002068016841F0010101602046BDE810402A
:1016E00000F074BB10B5006886B00C49884213D175
:1016F0000B48016841F400310160006802210022BA
:1017000000F4003005900C20032307248DE81F000F
:1017100004486946FEF74AFF06B010BD0044004089
:1017200040380240000002402DE9F84F044690F88E
:101730006A009A4616460D46202867D1EDB1E6B1FB
:1017400094F86800012861D00027012184F868100E
:101750002220E76684F86A004C34FFF71DF88146C2
:1017600054F8440CA6814FF48058E681FF214C3C8C
:10177000404508D1206918B10EE00120BDE8F88F7E
:1017800040F2FF100EE04FF07F0218B1B0F1805F21
:1017900005D009E0206950B9A4F85C1004E0206984
:1017A00028B13F20A4F85C00B4F85C601CE0A4F809
:1017B0005C20F9E7B4F85A00401EA4F85A00002251
:1017C0004B4620212046CDF800A000F04BFC08B18C
:1017D0000320D3E7A068404501D1206978B1206893
:1017E000406A304005F8010BB4F85A000028E1D1F6
:1017F000202084F86A00002084F86870BEE7216821
:101800002846AD1C496A31400180EDE70220B5E76A
:10181000FEE700002DE9F04F514887B0016841F024
:1018200010010160016801F010010591016841F0AB
:1018300004010160016801F004010591016841F0B3
:1018400001010160016801F001010591016841F0A9
:1018500002010160016801F002010591016841F097
:1018600008010160016801F008010591016841F07B
:1018700040010160006840F64304DFF8E8A0002260
:1018800000F04000214605905046FEF77FFFDFF84C
:10189000D8B04FF4FC66002231465846FEF776FF7A
:1018A0004FF41F47314800223946FEF76FFF4FF4CF
:1018B000C0682F4800224146FEF768FF4FF40079C8
:1018C0002C4800224946FEF761FF2B480022F021F8
:1018D000FEF75CFF012569465046CDE9004500242E
:1018E00002940394FEF762FE00966946CDE9015426
:1018F00058460394FEF75AFE4FF4407000900220C1
:101900006946CDE9010403200390072004901A489A
:10191000FEF74CFE00976946CDE901541348039445
:10192000FEF744FECDF800806946CDE90154104829
:101930000394FEF73BFECDF800906946CDE90154D3
:101940000C480394FEF732FEF0200090CDE90154DC
:10195000094869460394FEF729FE07B0BDE8F08FF9
:1019600030380240001002400004024000180240DB
:101970000008024000000240000C02402DE9F04146
:1019800010484FF4E0660E4D00214FF4827701229B
:10199000056000F1100847605302C0E902160824F0
:1019A000802588E83E0007264162C0E90A160163E7
:1019B0004163FFF7FDFC002800D0FEE7BDE8F081A1
:1019C00000340140380000202DE9F04110484FF468
:1019D000706500210D4F012200F11008C0E90215C9
:1019E0005302082488E81E000725016241624FF473
:1019F0008276C0E90A1501634163C0E90076FFF70A
:101A0000D7FC002800D0FEE7BDE8F081005401407B
:101A10009C0000200C48002110B50A4C0C224FF409
:101A200016530460C0E90131C160C0E9041281614C
:101A3000C16101624162FFF720FE002800D0FEE78D
:101A400010BD00000044004000010020FEE7704788
:101A5000090700284FEA116106DA00F00F0000F1D3
:101A6000E02080F8141D704700F1E02080F8001499
:101A700070477047F8B515460E4604460B464FF4BE
:101A8000C0510092002200F019F888B900223346B4
:101A900080212046009500F061F848B900223346C5
:101AA0004FF4C0612046009500F008F8002804D0EB
:101AB000206E40F0200020660320F8BD2DE9F84399
:101AC0004FF4C0681D4617460E46DDF820900446C8
:101AD0003DE0464505D127B9007B8DF800009DF813
:101AE0000000681C33D02DB1FEF756FEA0EB0900B4
:101AF000A8422CD32068416821F0E0014160606871
:101B0000B0F5827F0BD1A068B0F5004F02D0B0F5E0
:101B1000806F04D12068016821F040010160A06A53
:101B2000B0F5005F0AD120684DF6FF7201681140E0
:101B300001602068016841F400510160012184F8CE
:101B40005D10002084F85C000320BDE8F883206865
:101B500081683140B942BCD10020F6E72DE9F0415F
:101B60001D4616460F460446DDF8188035E0681C11
:101B700033D02DB1FEF710FEA0EB0800A8422CD305
:101B80002068416821F0E00141606068B0F5827F23
:101B90000BD1A068B0F5004F02D0B0F5806F04D132
:101BA0002068016821F040010160A06AB0F5005F83
:101BB0000AD120684DF6FF7201681140016020686B
:101BC000016841F400510160012184F85D1000209A
:101BD00084F85C000320BDE8F0812068806838400C
:101BE000B042C4D10020F6E7704710B5FEF7DAFD29
:101BF000BDE81040FFF73DBD2B4830B5B7B00168D8
:101C000041F080510160006800F080503690274814
:101C1000016841F440410160006800250DF1B00CFD
:101C2000022424940822D823CDE92A4500F4404018
:101C3000369010218CE81C0001202F94CDE927015B
:101C400024A8FFF717FA00B1FEE7FEF753FE00B134
:101C5000FEE74FF480524FF4A0510F20CDE934122B
:101C600031AA072182E8310031A8FFF717F900B146
:101C7000FEE78020129500906846FEF771FE00B1E5
:101C8000FEE7FFF7A1F94FF47A71B0FBF1F0FFF72F
:101C9000DDFC0420FFF7CDFC0022501E1146FEF7AC
:101CA000F7FD37B030BD0000403802400070004002
:101CB000104A30B51048146800210F4B44F47004EA
:101CC0001460083305680D4A0D4C45F001050560A8
:101CD00019600368051D1340074A03600C322C602D
:101CE0000568E305034C25F480250560803C116000
:101CF000236030BD88ED00E000380240FFFFF6FEB3
:101D00001030002490F82410C90706D00168836AB7
:101D10004A6822F400321A434A6090F82410890776
:101D200006D50168C36A4A6822F480321A434A60C1
:101D300090F82410490706D50168036B4A6822F41D
:101D400080221A434A6090F82410090706D50168DA
:101D5000436B4A6822F400421A434A6090F8241008
:101D6000C90606D50168836B8A6822F480521A433B
:101D70008A6090F82410890606D50168C36B8A68CA
:101D800022F400521A438A6090F82410490611D5B3
:101D90000168036C4A6822F480121A434A60016C9D
:101DA000B1F5801F06D10168436C4A6822F4C00275
:101DB0001A434A6090F82410090606D50168826C1F
:101DC000486820F4002010434860704738B500256B
:101DD0000446C566FEF7E0FC03462068006800077D
:101DE0000BD56FF07E400090002220464FF400118A
:101DF00000F038F908B1032038BD202084F86900CC
:101E000084F8685084F86A00002038BD2DE9F04756
:101E100004468068874B884F2668D4E90415E26938
:101E20000843D6F800C01021154300222843154668
:101E30000CEA030C814B4CEA000CC6F800C04FF4CE
:101E400000492068D4F80CC0466826F4405646EA9B
:101E50000C0646602668D4F82080A069D6F808C031
:101E600040EA08002CF4306C4CEA000CC6F808C0BC
:101E70002068B8420AD11B6813F0030352D0012B2B
:101E80007AD0022B76D0032B79D177E06C4EB0421A
:101E90000AD11B6813F00C036AD0042B6CD0082BFA
:101EA00068D00C2B6BD169E0664EB0420AD11B683A
:101EB00013F030035CD0102B5ED0202B5AD0302B87
:101EC0005DD15BE0604EB0420AD11B6813F0C003E5
:101ED0004ED0402B50D0802B4CD0C02B4FD14DE05A
:101EE0005A4EB0420DD11B6813F4407340D0B3F585
:101EF000807F41D0B3F5007F3CD0B3F5407F3ED129
:101F00003CE0534EB0420FD11B6813F4406309D03C
:101F1000B3F5806F30D0B3F5006F2BD0B3F5406FC1
:101F20002DD12BE001212AE04A4EB0420DD11B6891
:101F300013F440531CD0B3F5805F1DD0B3F5005FA0
:101F400018D0B3F5405F1AD118E0434EB04216D115
:101F50001B6813F440430BD0B3F5804F0CD04B45B6
:101F600008D0B3F5404F0AD108E005E002E0FFE7F2
:101F7000002104E0022102E0042100E00821E669DA
:101F80004E452AD109291FD2DFE801F00508141EA9
:101F9000171E1E1E1A00FFF71DF801E0FFF72AF8B2
:101FA0000146D4F80400490001EB5001B1FBF0F008
:101FB00082B20AE029496068F6E7FFF72BF8EFE7FD
:101FC00060684FF48031EFE70125216822F00F00AF
:101FD000C2F342021043C86028E0092925D2DFE895
:101FE00001F005080B24102424241C00FEF7F2FF46
:101FF00009E0FEF7FFFF06E06168194A02EB5102B3
:102000000EE0FFF707F80146D4E9002001EB50018C
:10201000B1FBF0F080B2D06008E0616809EB5102DA
:10202000B2FBF1F189B2C16000E001252846BDE8AC
:10203000F0870000F369FFEF001001409038024084
:102040000044004000480040004C00400050004068
:102050000014014000780040007C00400048E80186
:102060000024F4002DE9F041984617460E46044638
:10207000069D1DE0681C1BD02DB1FEF78DFBA0EB6B
:102080000800A84214D32168202000220B6823F402
:10209000D0730B6021688B6823F001038B6084F898
:1020A000690084F86A00032084F86820BDE8F081A4
:1020B0002068C06936EA000004D00020B842D9D0B8
:1020C0000020F3E70120F9E7FEE700000048704731
:1020D000340000200000000010B52DED020B84B08C
:1020E0009DED040B51EC100BFEF738F941EC100B91
:1020F0009DED041B05989FED1A2B31EE401B9FEDC3
:102100001A3B9FED1B4B10F0004F0AD0B4EEC41BDE
:10211000F1EE10FA0AD9B4EEC31BF1EE10FA0FDD9E
:102120000CE0B4EEC41BF1EE10FA02D230EE420B1A
:1021300006E0B4EEC31BF1EE10FA01DB30EE020B49
:102140008DED020B9DED040B8DED000B10EE900A52
:10215000039961F31E0003909DED020B06B010BDC4
:10216000000000000000F03F000000000000E03F21
:10217000000000000000E0BF02E008C8121F08C114
:10218000002AFAD170477047002001E001C1121FF8
:10219000002AFBD170470000FEF70CFBFFF72CFD77
:1021A000FFF738FBFFF710FCFFF7E8FBFFF732FC07
:1021B000FE4C4FF40078DFF8F8A34FF4004BDFF843
:1021C000F493FD4DFD4E0123F9490A22A1F170005F
:1021D000FFF7AAFA002248464FF48071FEF7D6FABC
:1021E000F2486423617810220078090341EA001064
:1021F000EE49C880891DEE48D438FFF77BF90120ED
:10220000FEF7C2F90122EB481102FEF7BFFAE948D6
:1022100000224FF48071FEF7B9FAE4486423827813
:102220000178100340EA0110E049102208810831CA
:10223000DF48D438FFF75EF90120FEF7A5F9012247
:10224000DC481102FEF7A2FADD4847464146FEF798
:1022500099FA0120FEF798F9DA483946FEF792FA22
:102260000120FEF791F9002228460221FEF78EFA9E
:102270000120FEF789F9012228461146FEF786FA69
:102280000120FEF781F9002239463046FEF77EFA3A
:102290000120FEF779F9002230464FF48071FEF7F5
:1022A00075FA0120FEF770F9002230468021FEF712
:1022B0006DFA0120FEF768F9002230464021FEF752
:1022C00065FA0120FEF760F9002230462021FEF772
:1022D0005DFA0120FEF758F9B64800225946FEF78C
:1022E00055FA0120FEF750F9B24800224FF4805110
:1022F000FEF74CFA0120FEF747F9AE4800224FF4F2
:102300000061FEF743FA0120FEF73EF9A9480022DA
:102310004FF48061FEF73AFA0120FEF735F9A5483F
:1023200000223946FEF732FA0120FEF72DF9A64FBA
:10233000002280213846FEF729FA0120FEF724F911
:10234000002238464021FEF721FA0120FEF71CF951
:10235000002238462021FEF719FA0120FEF714F971
:10236000002238461021FEF711FA9AF8021031299E
:102370007DD030297FF427AF002228460221FEF7C6
:1023800005FA0120FEF700F9002228460121FEF798
:10239000FDF90120FEF7F8F8002241463046FEF72D
:1023A000F5F90120FEF7F0F800223046B915FEF7E6
:1023B000EDF90120FEF7E8F8002230468021FEF713
:1023C000E5F90120FEF7E0F8002230464021FEF753
:1023D000DDF90120FEF7D8F8002230462021FEF773
:1023E000D5F90120FEF7D0F8002259464846FEF7FD
:1023F000CDF90120FEF7C8F800224846B914FEF7CF
:10240000C5F90120FEF7C0F85FF0000248464FF41E
:102410000061FEF7BBF90120FEF7B6F85FF000029D
:1024200048464FF48061FEF7B1F90120FEF7ACF8A1
:10243000002241464846FEF7A9F90120FEF7A4F81C
:10244000002238468021FEF7A1F90120FEF79CF812
:10245000002238464021FEF799F90120FEF794F852
:10246000002238462021FEF791F9012000E003E028
:10247000FEF78AF80022F1E09AF8030031287DD0B7
:102480009AF804100AF10500302978D0FDF701FF11
:10249000A0610AF10400FDF7FCFE00EB8001606121
:1024A00048002061217E084420719FED481B9FED6C
:1024B000492BC0B200EE100AB1EE043BB8EE400B5F
:1024C00020EE010BB7EEC01B84ED031AB7EEC10A74
:1024D00020EE020B80EE031BB7EEC11B84ED071A42
:1024E000B7EEC10AFFF7F8FDBDEEC00B10EE100A03
:1024F0002062E0706420FEF747F89AF80000302868
:102500006CD031287FF45FAE002228460221FEF70E
:102510003DF90120FEF738F8002228460121FEF798
:1025200035F90120FEF730F8002241463046FEF72B
:102530002DF90120FEF728F8002230464FF4807173
:10254000FEF724F90120FEF71FF800223046802113
:10255000FEF71CF90120FEF717F800223046402153
:10256000FEF714F90120FEF70FF800223046202173
:10257000FEF70CF90120FEF707F801E070E071E0CA
:10258000002259464846FEF701F90120FDF7FCFFFD
:10259000002248464FF48051FEF7F8F80120FDF77D
:1025A000F3FF9AF8010030287ED018E000000020E8
:1025B0007001002000180240001002400004024098
:1025C0000000024000080240000C02403333333365
:1025D00033334040000000000000704046E03128E6
:1025E0007ED032287DD033287CD034287BD035284B
:1025F0007AD0362886D1002248464FF40061FEF793
:10260000C5F80120FDF7C0FF002248464FF4806165
:10261000FEF7BCF80120FDF7B7FF0022414648460F
:10262000FEF7B4F80120FDF7AFFF00223846802105
:10263000FEF7ACF80120FDF7A7FF00223846402145
:10264000FEF7A4F80120FDF79FFF00223846202165
:10265000FEF79CF80120FDF797FF01221021F6E01C
:10266000642021E7FDF715FEA0611DE70022484622
:102670004FF40061FEF78AF80120FDF785FF002284
:1026800048464FF48061FEF781F80120FDF77CFF9A
:10269000002241464846FEF779F80120FDF774FF15
:1026A00000223846802100E0C0E1FEF76FF80120EB
:1026B000FDF76AFF002238464021FEF767F8012047
:1026C000FDF762FF002238462021FEF75FF8012067
:1026D000FDF75AFF002238461021FEF757F804E0B4
:1026E000A6E1B0E1C3E1DEE101E20120FDF74CFF2C
:1026F0009AF80100312854D032285CD033287DD09C
:1027000034287CD035287BD036287AD0372879D029
:10271000382878D039287FF456AD00222846022187
:10272000FEF734F80120FDF72FFF00222846012193
:10273000FEF72CF80120FDF727FF00224146304626
:10274000FEF724F80120FDF71FFF002230464FF46A
:102750008071FEF71BF80120FDF716FF00223046BE
:102760008021FEF713F80120FDF70EFF002230460E
:102770004021FEF70BF80120FDF706FF002230464E
:102780002021FEF703F80120FDF7FEFE0022594646
:102790004F464846FDF7FAFF0120FDF7F5FE0122FE
:1027A00053E0012228460221FDF7F0FF0120FDF74A
:1027B000EBFE002208E0002228460221FDF7E6FF9A
:1027C0000120FDF7E1FE012228460121FDF7DEFF91
:1027D0000120FDF7D9FE002241463046FDF7D6FF25
:1027E0000120FDF7D1FE002230464FF48071FDF745
:1027F000CDFF0120FDF7C8FE002205E02EE03FE0FE
:1028000058E07AE0A4E0D6E080213046FDF7BEFF34
:102810000120FDF7B9FE002230464021FDF7B6FF4A
:102820000120FDF7B1FE002230462021FDF7AEFF6A
:102830000120FDF7A9FE002259464F464846FDF704
:10284000A5FF0120FDF7A0FE00224FF4805138467D
:10285000FDF79CFF0120FDF797FEB4E40022284617
:102860000221FDF793FF0120FDF78EFE002228468E
:102870000121FDF78BFF0120FDF786FE0122ABE76A
:10288000002228460221FDF781FF0120FDF77CFE92
:10289000002228460121FDF779FF0120FDF774FE93
:1028A000002241463046FDF771FF0120FDF76CFE26
:1028B000012299E7002228460221FDF767FF012047
:1028C000FDF762FE002228460121FDF75FFF01208F
:1028D000FDF75AFE002241463046FDF757FF012022
:1028E000FDF752FE002230464FF48071FDF74EFF97
:1028F0000120FDF749FE01227FE700222846022140
:10290000FDF744FF0120FDF73FFE0022284601218C
:10291000FDF73CFF0120FDF737FE0022414630461F
:10292000FDF734FF0120FDF72FFE002230464FF463
:102930008071FDF72BFF0120FDF726FE00223046B7
:102940008021FDF723FF0120FDF71EFE012263E732
:10295000002228460221FDF719FF0120FDF714FE91
:10296000002228460121FDF711FF0120FDF70CFE92
:10297000002241463046FDF709FF0120FDF704FE25
:10298000002230464FF48071FDF700FF0120FDF773
:10299000FBFD002230468021FDF7F8FE0120FDF707
:1029A000F3FD002230464021FDF7F0FE0120FDF747
:1029B000EBFD012238E7002228460221FDF7E6FE62
:1029C0000120FDF7E1FD002228460121FDF7DEFE92
:1029D0000120FDF7D9FD002241463046FDF7D6FE25
:1029E0000120FDF7D1FD002230464FF48071FDF744
:1029F000CDFE0120FDF7C8FD002230468021FDF705
:102A0000C5FE0120FDF7C0FD002230464021FDF744
:102A1000BDFE0120FDF7B8FD002230462021FDF764
:102A2000B5FE0120FDF7B0FD012205E70122EDE42E
:102A3000002248464FF40061FDF7A8FE0120FDF793
:102A4000A3FD0122ECE4002248464FF40061FDF7AB
:102A50009DFE0120FDF798FD002248464FF480615D
:102A6000FDF794FE0120FDF78FFD0122E1E4002235
:102A700048464FF40061FDF789FE0120FDF784FD13
:102A8000002248464FF48061FDF780FE0120FDF7EB
:102A90007BFD002241464846FDF778FE0120FDF708
:102AA00073FD0122CDE4002248464FF40061FDF79A
:102AB0006DFE0120FDF768FD002248464FF480615D
:102AC000FDF764FE0120FDF75FFD00224146484608
:102AD000FDF75CFE0120FDF757FD002238468021FE
:102AE000FDF754FE0120FDF74FFD0122B1E4002265
:102AF00048464FF40061FDF749FE0120FDF744FD13
:102B0000002248464FF48061FDF740FE0120FDF7AA
:102B10003BFD002241464846FDF738FE0120FDF707
:102B200033FD002238468021FDF730FE0120FDF7FD
:102B30002BFD002238464021FDF728FE0120FDF73D
:102B400023FD01228DE400000000000000000102CE
:102B50000304060708090000000001020304004006
:102B60004040404040404040414141414140404060
:102B70004040404040404040404040404040400590
:102B80000202020202020202020202020202022007
:102B90002020202020202020200202020202020207
:102BA0009090909090901010101010101010101025
:102BB0001010101010101010101002020202020269
:102BC0008888888888880808080808080808080885
:102BD000080808080808080808080202020240005D
:102BE0005F2B0008042C00080000002038000000C3
:102BF000782100083C2C000838000020480500001F
:102C000088210008330105000000000000000000DA
:102C100000000000000000000000000000000000B4
:102C20000000000000000000010000001000000093
:0C2C3000000000000024F4000000000080
:04000005080001F9F5
:00000001FF
